S01100006C6162325F736B656C2E73726563A4
S11300000C9450000C946F000C946F000C946F00CF
S11300100C946F000C946F000C946F000C946F00A0
S11300200C946F000C946F000C946F000C946F0090
S11300300C946F000C946F000C946F000C946F0080
S11300400C946F000C946F000C946F000C946F0070
S11300500C946F000C946F000C946F000C946F0060
S11300600C946F000C946F000C946F000C946F0050
S11300700C946F000C946F000C946F000C946F0040
S11300800C946F000C946F000C946F002C012301EE
S11300901A01110108010001F800F000E80035011F
S11300A011241FBECFEFD0E1DEBFCDBF11E0A0E031
S11300B0B1E0E8E7F5E000E00BBF02C007900D9265
S11300C0A830B107D9F721E0A8E0B1E001C01D9242
S11300D0A532B207E1F70E9492010C94BA020C9483
S11300E00000E82FF0E0C8991CC089B3EE0FFF1F91
S11300F0EB5EFE4F8095282F217030E0306E8081BA
S11301009181880F991F282B392B3183208381E01B
S113011090E020911501309116012115304FE1F046
S1130120089549B3EE0FFF1FEB5EFE4F208131812E
S1130130220F331F306E50E002C0559547958A95C3
S1130140E2F741705527242B352B3183208381E03E
S113015090E02115304F21F380E00895AF92BF92D3
S1130160DF92EF92FF920F931F93CF93DF93E1E11E
S1130170AE2EE1E0BE2EC8E0D1E0DD24DA94F0E951
S1130180EF2EA0E8FA2E08EF12E872E969E950EBC5
S113019044EA39EF20ECF50181915F0190E08A3067
S11301A0910588F0D8822196F6E1AF16F1E0BF06FA
S11301B091F7DF91CF911F910F91FF90EF90DF9016
S11301C0BF90AF9008958A5B9F4FFC010C94A502E9
S11301D0F8822196F6E1AF16F1E0BF06E1F6E9CF29
S11301E008832196F6E1AF16F1E0BF06A1F6E1CF50
S11301F018832196F6E1AF16F1E0BF0661F6D9CF78
S113020078832196F6E1AF16F1E0BF0621F6D1CF4F
S113021068832196F6E1AF16F1E0BF0609F0BBCF83
S1130220C8CF58832196F6E1AF16F1E0BF0609F076
S1130230B2CFBFCF48832196F6E1AF16F1E0BF06F7
S113024009F0A9CFB6CF38832196F6E1AF16F1E0D5
S1130250BF0609F0A0CFADCF28832196F6E1AF16F3
S1130260F1E0BF0609F097CFA4CFE8822196F6E12A
S1130270AF16F1E0BF0609F08ECF9BCF21E030E04E
S113028070E160E25FEF40E3C901019781309105BD
S113029039F1823091058CF083309105C1F10497D6
S11302A051F580E488BB80910C018BBB8FE39FE107
S11302B00197F1F700C000000895892BE1F418BA02
S11302C0809108018BBB8FE39FE10197F1F700C098
S11302D000002F5F3F4FC901019781309105C9F696
S11302E078BB809109018BBB8FE39FE10197F1F704
S11302F000C00000EECF68BB5BBB8FE39FE10197BA
S1130300F1F700C000002530310519F7089548BB06
S113031080910B018BBB8FE39FE10197F1F700C044
S11303200000D7CF80EF87BBC0E0D0E0CC24CA94D4
S113033060E7F62E7FE5E72E1ABACBBAF8BADD24C9
S1130340DA9410E0B12C07C0113009F48FC010E02A
S1130350093059F0D02E01E00D0D802F0E9471005C
S1130360892B91F711E00930A9F7C11534E0D307BF
S113037008F084C0CB0DD11D9E01ADECBCEC0E94F5
S1130380AB02AC01569547955695479556954795BA
S1130390CA01880F991F9A01220F331F220F331F9E
S11303A0220F331F820F931F9E01281B390B2093AA
S11303B011019A010E94AB029695879596958795AF
S11303C0969587959C01220F331F880F991F880FDC
S11303D0991F880F991F280F391F421B530B4093F5
S11303E012019E013695279536952795ABE7B4E122
S11303F00E94AB02FC01F695E7959F01ADECBCECC5
S11304000E94AB02969587959695879596958795C4
S1130410AC01440F551F880F991F880F991F880F2F
S1130420991F480F591FE41BF50BE09314019E011B
S1130430369527953695279536952795A5ECB0E200
S11304400E94AB02929582958F7089279F708927AD
S11304508093150181E191E00E94AE00E8BACABA26
S11304601BBA88E091E00E943E0166CF26E02D157C
S113047008F064C010E0BB24B3946ACFCF5FD340CC
S11304809E01ADECBCEC0E94AB02AC0156954795C5
S11304905695479556954795CA01880F991F9A0115
S11304A0220F331F220F331F220F331F820F931F7C
S11304B09E01281B390B209311019A010E94AB0263
S11304C09695879596958795969587959C01220F85
S11304D0331F880F991F880F991F880F991F280FA2
S11304E0391F421B530B409312019E0136952795E9
S11304F036952795ABE7B4E10E94AB02FC01F69573
S1130500E7959F01ADECBCEC0E94AB0296958795F4
S11305109695879596958795AC01440F551F880F3E
S1130520991F880F991F880F991F480F591FE41BA3
S1130530F50BE0931401109215018CCFED2DF0E032
S1130540E050FF4FB08010E003CFEE0FFF1F059087
S1130550F491E02D0994A29FB001B39FC001A39F21
S1130560700D811D1124911DB29F700D811D1124E8
S10B0570911D0895F894FFCFDA
S10B0578020408102040800079
S9030000FC
