:100000000C9446000C9465000C9465000C946500FB
:100010000C9465000C9465000C9465000C946500CC
:100020000C9465000C9465000C9465000C946500BC
:100030000C9465000C9465000C9465000C946500AC
:100040000C9465000C9465000C946F000C94650092
:100050000C9465000C9465000C9465000C9465008C
:100060000C9465000C9465000C9465000C9465007C
:100070000C9465000C9465000C9465000C9465006C
:100080000C9465000C9465000C94650011241FBE4F
:10009000CFEFD0E1DEBFCDBF11E0A0E0B1E0ECE0FA
:1000A000FAE000E00BBF02C007900D92AE30B1073E
:1000B000D9F721E0AEE0B1E001C01D92A73FB20741
:1000C000E1F70E940C040C9404050C94000087B323
:1000D000876087BB8DB180658DB9709A08951F9236
:1000E0000F920FB60F9211240BB60F928F939F931E
:1000F000EF93FF938CB180932601E0910F0191E083
:100100009E0F90930F01F0E0EA5EFE4F8083811115
:1001100009C081E08093110180E280838183828322
:1001200010920F01FF91EF919F918F910F900BBE55
:100130000F900FBE0F901F9018955D9BFECF8CB94E
:100140005D9BFECF089590919B0095FFFCCF80931F
:100150009C0080919B0085FFFCCF0895FC012081CD
:10016000222349F031965D9BFECF2CB95D9BFECFDB
:1001700021912111F8CF0895FC012081222371F0F3
:10018000319680919B0085FFFCCF20939C0080914D
:100190009B0085FFFCCF21912111F3CF08959C0195
:1001A000FC014491442369F00196F90124915D9B7F
:1001B000FECF2CB95D9BFECF9C01FC014491411107
:1001C000F3CF08958AB188698AB9E5E9F0E08081C2
:1001D000866080831092900087E689B90895EAE9E5
:1001E000F0E0808188618083EDE9F0E080818660C5
:1001F00080831092980087E680939900089580E8A4
:100200009EE303C00197009721F05F9BFBCF8CB169
:10021000089580E0089580E89EE303C00197009769
:1002200039F020919B0027FFF9CF80919C00089521
:1002300080E0089591E0811101C090E09FB9779B23
:10024000FECF6FB9779BFECF80916200886080936C
:10025000620080916200877F809362000895CF934F
:10026000C09110018C0F911DFC01608181E00E9402
:100270001A0181E08C0F80931001803181F080326F
:1002800011F0CF91089585ED8A95F1F7000060E8AF
:1002900080E00E941A0110921001CF910895F5EDAF
:1002A000FA95F1F7000060EC80E00E941A0180915D
:1002B0001001E5CFEF92FF921F93CF93DF931F9230
:1002C000CDB7DEB7182F660F660F660F605C80E053
:1002D00099830E941A0185ED8A95F1F70000E12EBD
:1002E0009981F92E18E0F70161917F0181E00E9468
:1002F0001A01F5EDFA95F1F700001150A1F70F90F2
:10030000DF91CF911F91FF90EF90089590E4899F26
:10031000600D1124605C80E00C941A01CF93C82F0B
:100320008823B1F1843698F48A30D8F48DECC89FD4
:10033000812D11248695869586956C2F9AE0899F4C
:1003400060191124605D81E0CF910C941A0169E27B
:10035000869F612D112462956F70605D81E00E941F
:100360001A0189E2C89F812D112482958F706C2F0C
:1003700094E6899F601911248DEC689F612D1124EA
:10038000669566956695605D81E00E941A01CECF04
:1003900060E381E0CF910C941A01CF93C82F87FDC1
:1003A00003C0CF910C948E016DE281E00E941A018E
:1003B00085ED8A95F1F700008C2F8195CF910C94F3
:1003C0008E016EE080E00C941A016CE080E00C94E9
:1003D0001A016EE180E00C941A0168E180E00C944F
:1003E0001A01E2E6F0E08081886080838081877F67
:1003F0008083089561E080E00E941A018FE19CE112
:100400000197F1F700C00000089562E080E00E94CB
:100410001A018FE697E10197F1F700C000000895F7
:1004200060EC80E00C941A0160E880E00C941A0102
:10043000CF93C0E160E281E00E941A0185ED8A95C8
:10044000F1F70000C150B1F7CF910895682F81E016
:100450000C941A011F93CF93DF93EC0180E090E09E
:1004600010E0FE01E80FF91F608181E00E941A018F
:1004700085ED8A95F1F700001F5F812F90E0FE0166
:1004800001900020E9F7EC1BFD0B3297E817F90704
:1004900040F7DF91CF911F9108958FEF99EF01976A
:1004A000F1F700C0000088E08093610060E380E025
:1004B0000E941A018FE59DE60197F1F700C0000048
:1004C00060E380E00E941A018FE59DE60197F1F755
:1004D00000C0000060E380E00E941A018FE59DE605
:1004E0000197F1F700C0000068E380E00E941A0164
:1004F0008FE19EE40197F1F700C0000068E080E022
:100500000E941A018FE19EE40197F1F700C00000FC
:1005100061E080E00E941A018FE19EE40197F1F70B
:1005200000C0000066E080E00E941A018FE19EE4B6
:100530000197F1F700C000006CE080E00E941A0112
:100540008FE19EE40197F1F700C000000895AF929B
:10055000BF92CF92DF92EF92FF920F931F93CF93B0
:10056000DF93CDB7DEB769970FB6F894DEBF0FBE45
:10057000CDBFB42EF22E002351F08B019C01002739
:1005800037FD039511272227332797FD8CC0FF20C5
:1005900009F481C010E09E012F5F3F4F690101C047
:1005A000122F2AE030E040E050E00E947A04A62FAB
:1005B0002A8B3B8B4C8B5D8B6A897B898C899D89CF
:1005C00021E0210FF601E10FF11DA05DA0832F11A5
:1005D000E7CFAA24A394AF0CF601EF0DF11D2EE294
:1005E000208301C0A12E2AE030E040E050E00E94CC
:1005F0007A04A62F2A8B3B8B4C8B5D8B6E8B7F8B6B
:10060000888F998F6A897B898C899D8911E01A0D61
:10061000F601EA0DF11DA05DA0836115710581054C
:10062000910501F7BB2081F0E1103BC090E21B1562
:1006300010F00AC0182F81E0810FF601E10FF11DC3
:1006400090838B11F7CF1B2D002331F0F601E10FC2
:10065000F11D8DE280831F5F1150F601E10FF11D46
:10066000608181E00E941A0135ED3A95F1F70000B2
:100670001111F2CF69960FB6F894DEBF0FBECDBF51
:10068000DF91CF911F910F91FF90EF90DF90CF906E
:10069000BF90AF900895A12C9E012F5F3F4F69013D
:1006A000A2CF90E3C4CF90958095709561957F4FD0
:1006B0008F4F9F4F6CCF9F92AF92BF92CF92DF929E
:1006C000EF92FF920F931F93CF93DF93CDB7DEB7D7
:1006D00061970FB6F894DEBF0FBECDBFFC01E62ECA
:1006E000942EB22ECF2ECC1CCC24CC1CFC2C19F07A
:1006F000F195E195F109992009F485C0D12C8E017D
:100700000F5F1F4F01C0D92E6AE070E0CF010E9439
:100710006604262FE22FF72F91E09D0DD801AD0D35
:10072000B11D805D8C939911EECFAA24A394A90CDE
:10073000D801A90DB11D8EE28C9301C0AD2C6AE0E9
:1007400070E0CF010E946604262FE22FF72FDD24F0
:10075000D394DA0CD801AA0DB11D805D8C9330972B
:1007600069F78D2DBB2051F1E11052C0FF2031F00F
:10077000F801ED0DF11D8DE28083D394DA94F80138
:10078000ED0DF11D608181E00E941A0185ED8A95D1
:10079000F1F70000D110F2CF61960FB6F894DEBFEA
:1007A0000FBECDBFDF91CF911F910F91FF90EF90C2
:1007B000DF90CF90BF90AF909F900895CC2041F0F4
:1007C00052E0D52EDA0CF801E80FF11D8DE280839E
:1007D000EE20A1F220E030E0F12C40E28D2D90E0FF
:1007E0006E2D70E0621B730B861797070CF0BECF5F
:1007F000D394F801E80FF91F40838D2D90E0861700
:100800009707B4F3B3CFA12C8E010F5F1F4F97CF83
:100810002C2D30E040E3E2CF80916100886080932E
:1008200061000E94E20087B3876087BB8DB180655D
:100830008DB9709A0E944D020E94FA010E94050231
:100840007894CDEC809111018130B9F180E091E094
:100850000E94AE0080910E014AE063E171E090E0F9
:100860000E94CF0483E191E00E94AE0080E00E94EC
:100870009D00109212018FEF91EE24E08150904084
:100880002040E1F700C00000809112018F5F80934B
:1008900012018A3080F380910E018F5F8C9F912D21
:1008A000112492959F7024E1929F801911248093C6
:1008B0000E0180911101813049F686E191E00E949C
:1008C0002A02109211010E940502C0CF97FB072E49
:1008D00016F4009407D077FD09D00E94990407FC14
:1008E00005D03EF4909581959F4F08957095619540
:1008F0007F4F0895052E97FB1EF400940E949104EB
:1009000057FD07D00E94AD0407FC03D04EF40C94B1
:10091000910450954095309521953F4F4F4F5F4F33
:10092000089590958095709561957F4F8F4F9F4F5B
:100930000895AA1BBB1B51E107C0AA1FBB1FA61726
:10094000B70710F0A61BB70B881F991F5A95A9F778
:1009500080959095BC01CD010895A1E21A2EAA1BA5
:10096000BB1BFD010DC0AA1FBB1FEE1FFF1FA2175F
:10097000B307E407F50720F0A21BB30BE40BF50B5C
:10098000661F771F881F991F1A9469F760957095E5
:10099000809590959B01AC01BD01CF010895BB27C7
:1009A0004A3031F4992322F4BDE2909581959F4F0E
:1009B0000C94DB04BB27FB015527AA27880F991F3E
:1009C000AA1FA41710F0A41B83955051B9F7A05D7E
:1009D000AA3308F0A95DA193009779F7B111B193FB
:1009E0001192CB010C94F404DC01FC01672F71918E
:1009F0007723E1F7329704C07C916D937083629105
:0C0A0000AE17BF07C8F30895F894FFCFAD
:0E0A0C004869212044696C626572743A2000CA
:00000001FF
