:100000000C9446000C9465000C9465000C946500FB
:100010000C9465000C9465000C9465000C946500CC
:100020000C9465000C9465000C9465000C946500BC
:100030000C9465000C9465000C9465000C946500AC
:100040000C9465000C9465000C9465000C9465009C
:100050000C9465000C9465000C9465000C9465008C
:100060000C9465000C9465000C9465000C9465007C
:100070000C9465000C9465000C9465000C9465006C
:100080000C9465000C9465000C94650011241FBE4F
:10009000CFEFD0E1DEBFCDBF11E0A0E0B1E0EAEEEE
:1000A000F4E000E00BBF02C007900D92A431B1074D
:1000B000D9F721E0A4E1B1E001C01D92A533B20758
:1000C000E1F70E946F010C9473020C940000E82F7A
:1000D000F0E0C8991BC089B3EE0FFF1FEC5EFE4F26
:1000E0008095282F217030E0306E80819181880FBB
:1000F000991F282B392B3183208381E02091140113
:10010000309115012115304FD9F0089549B3EE0F04
:10011000FF1FEC5EFE4F20813181220F331F306EB6
:1001200050E002C0559547958A95E2F741705527F2
:10013000242B352B3183208381E02115304F29F387
:1001400080E00895AC019C0136952795369527955A
:1001500036952795A5ECB0E20E94640292958295AF
:100160008F7089279F708927809334019A01369573
:10017000279536952795ABE7B4E10E946402FC0110
:10018000F695E7959F01ADECBCEC0E946402969554
:1001900087959695879596958795BC01660F771FED
:1001A000880F991F880F991F880F991F680F791F53
:1001B000E61BF70BE09333019A010E946402FC01F5
:1001C000F695E795F695E795F695E7959F010E94D8
:1001D00064029695879596958795969587959C0147
:1001E000220F331F880F991F880F991F880F991F9F
:1001F000280F391FCF01821B930B80933101CF0150
:10020000880F991FEE0FFF1FEE0FFF1FEE0FFF1F4E
:100210008E0F9F1F481B590B4093300108950F9379
:10022000A1E0B0E050E130E3FD013197E130F105AC
:10023000F1F0E230F1055CF0E330F10529F134979B
:1002400081F5885E9340489788F10F910895EF2BD0
:1002500041F518BA6BBBEFE3FFE13197F1F700C04E
:1002600000001196FD013197E130F10511F78A3058
:100270009105BCF358BB4BBBEFE3FFE13197F1F7BE
:1002800000C000001196EECF8436910554F338BBC0
:100290002BBBEFE3FFE13197F1F700C000001196AF
:1002A000E1CFA530B10589F21196DCCF80E488BB9F
:1002B0000BBB8FE39FE10197F1F700C000000F91A6
:1002C00008958A30910540F4FC01EE0FFF1FE050C5
:1002D000FF4F8081918108958FEF90E0089580E72E
:1002E00087BBC0E0D0E0FF24FA94F0E7EF2E98C07F
:1002F0009E01369527953695279536952795A5EC39
:10030000B0E20E9464028C01129502950F700127E1
:100310001F700127D02E9E0136952795369527957B
:10032000ABE7B4E10E9464025C01B694A794950126
:10033000ADECBCEC0E9464024C01969487949694B8
:10034000879496948794A401440F551FF401EE0FEF
:10035000FF1FEE0FFF1FEE0FFF1F4E0F5F1F450128
:10036000841A950AB82C9E010E946402AC0156952D
:10037000479556954795569547959A010E94640270
:10038000DC01B695A795B695A795B695A795CD012D
:10039000880F991FAA0FBB1FAA0FBB1FAA0FBB1F55
:1003A0008A0F9B1FDA01A81BB90B6A2FCA01880F9D
:1003B000991F440F551F440F551F440F551F840F9D
:1003C000951F9E01281B390B822F18BAFABAD092BA
:1003D0003401B09233016093310180933001220FD8
:1003E000331F20503F4FF90160817181AA0FBB1F5D
:1003F000A050BF4F4D915C91F401EE0FFF1FE050F4
:10040000FF4F208131810A30110538F5F801EE0FD8
:10041000FF1FE050FF4F00811181CE010E940F01AC
:100420001ABAFBBAE8BA80E00E9467008823C1F0DC
:100430002196C11584E0D8070CF45ACF81E021E061
:1004400030E060E0A0E0B0E0B12C812C912CD12C08
:1004500000E010E0C1E0D0E0B8CF0FEF10E0DDCF5A
:1004600081E00E946700882311F02296E2CF82E0AB
:100470000E946700882311F02496DBCF83E00E945E
:100480006700882311F02896D4CF84E00E9467008B
:10049000882311F06096CDCF85E00E946700882305
:1004A00011F0A096C6CF86E00E946700882319F05D
:1004B000C05CDF4FBECF87E00E946700882309F44D
:1004C000B8CFC058DF4FB5CFA29FB001B39FC001D6
:1004D000A39F700D811D1124911DB29F700D811D70
:0A04E0001124911D0895F894FFCF38
:1004EA00C000F900A400B000990092008200F80050
:0404FA0080009000EE
:00000001FF
