:100000000C9430020C944F020C944F020C944F024B
:100010000C944F020C94E0140C944F020C944F0279
:100020000C944F020C944F020C944F020C944F020C
:100030000C94A60C0C944F020C944F020C944F029B
:100040000C942D140C944F020C94A1140C944F0298
:100050000C944F020C94840F0C944F020C944F029A
:100060000C944F020C944F020C94510F0C944F02BD
:100070000C944F020C944F020C944F020C944F02BC
:100080000C944F020C941A150C944F028B0293029D
:100090009B02A302AB02B402BD027B0283021104E5
:1000A000090404042E04210429041904E203DA03D8
:1000B000D503CD033604EA03C003A8035604FF03A7
:1000C000F703EF037604B0036604B80383044E0419
:1000D0006E04C80346043E045E04A303710369036F
:1000E00079037B045C0354037E0337039B0364039F
:1000F00047033F038B034F0383032F03150393032E
:100100000503FD0222031A032703F8020D03E00290
:10011000F002DB02D302CB02C602E8028D05AB057A
:10012000870599057B0581057B058105B1058D0551
:10013000AB05870599059305750593057505DB05E1
:100140001706CF054706CF050B0605067505E10521
:100150007505F3059F0535067B052906B7052F06AE
:10016000BD053B06FF05A5059F05E705C3058D05F4
:10017000AB05870599057B0581057B058105B105E3
:100180008D051106A505870593057505930575056C
:10019000DB051D06ED05B1052306E105B705BD0527
:1001A0009F05A5054106C3055F06830659067D0622
:1001B0000107FB0659068306890665060D075906E1
:1001C0005F067D065906C506590671065F06A1063B
:1001D000890665069B061F0771068F062B07DD063D
:1001E0008F06F50659065F067D065906BF066506A9
:1001F0008306590671065F06A1068906650619077A
:10020000B306AD067706A70695067706E906EF065C
:10021000E306B306AD067706A7069506070713079C
:100220009B06CB06D106DB0BCF0BC90BBD0BB70B67
:10023000AB0BA50B9F0B990B930B870B810B7B0BC8
:100240006F0B690B5D0B570B4B0B450B390B330BCE
:100250002D0B270B210B150B0F0B090B030BFD0AA5
:10026000F10AEB0ADF0AD90AD30ACD0AC10ABB0A8E
:10027000AF0AA90A9D0A970A8B0A850A790A730AA6
:10028000670A610A5B0A550A4F0A430A3D0A370AA0
:10029000310A2B0A1F0A190A0D0A070A010AFB096B
:1002A000EF09E909E309DD09D709CB09C509B9094E
:1002B000B309AD09A7099B0995098F0989097D092A
:1002C000770971096B0965095909530947094109FA
:1002D00035092F0923091D0911090B090509FF0813
:1002E000F908ED08E708DB08D508CF08C908BD08FC
:1002F000B708B108AB089F0899088D0887087B08E4
:100300007508690863085708510845083F0833080D
:100310002D08270821081B080F0809080308F707FC
:10032000F107E507DF07D307CD07C107BB07B5070F
:10033000AF07A3079D0791078B077F0779076D0715
:10034000670761075B075507490743073D07E10B4F
:100350000B0CF90B0B0CF90B0B0CF90B2F0CF90B0D
:100360002F0C170C050C470C050C350C230C110C2D
:10037000F90B110CF90B110CF90B290CF90B290CC9
:10038000170C3B0C410CF90B050C4D0C230C960D76
:10039000930D900D8D0D8A0D870D840D810D7E0DB1
:1003A0007B0D530D990D960D930D900D8D0D8A0DAE
:1003B000870D840D810D7E0D7B0D530D990D5A1502
:1003C00031153115311531153115311531155A15D4
:1003D00031153115311531153115311531156415BA
:1003E00031153115311531153115311531153115DD
:1003F000311531153115311531153115311564159A
:1004000031153115311531153115311531153115BC
:1004100031153115311531153115311531157B1562
:1004200031153115311531153115311531157F154E
:10043000311531153115311531153115311531158C
:1004400031153115311531153115311531158D1520
:1004500031153115311531153115311531154B1552
:1004600011241FBECFEFD0E1DEBFCDBF11E0A0E071
:10047000B1E0ECEAF1E400E00BBF02C007900D929E
:10048000A83AB107D9F722E0A8EAB1E001C01D926D
:10049000A63DB207E1F70E94031C0C94D4200C94F3
:1004A0000000929A1092FD011092FC0190E090934E
:1004B000F4018093F3010895CF9392981092FD0177
:1004C0001092FC0130E03093F4012093F30150E0EE
:1004D0004930510520F01BBC1ABCCF9108954A5BEE
:1004E0005F4FFA01992787FD9095A92FB92F815465
:1004F00091090C948E1D8730910578F7815B9F4F91
:10050000FC010C948E1D8730910538F78A5A9F4F55
:10051000FC010C948E1D87309105F8F6835A9F4F8D
:10052000FC010C948E1D87309105B8F68C599F4FB5
:10053000FC010C948E1D8730910578F685599F4FEC
:10054000FC010C948E1D8730910538F68E589F4F14
:10055000FC010C948E1D8730910508F0BECF8758A2
:100560009F4FFC010C948E1D8730910508F0B5CF8C
:1005700080589F4FFC010C948E1D8730910508F028
:10058000ACCF89579F4FFC010C948E1D88E590E0FD
:100590009BBD8ABDA2CF662309F40FC283E690E01B
:1005A0009BBD8ABD9ACF662309F411C28FE690E005
:1005B0009BBD8ABD92CF86E790E09BBD8ABD8DCF63
:1005C000662309F4FFC18AE490E09BBD8ABD85CF14
:1005D000662309F401C283E590E09BBD8ABD7DCF0F
:1005E000662309F4B8C182E490E09BBD8ABD75CF53
:1005F00081EB90E09BBD8ABD70CF662309F4D3C127
:1006000085E890E09BBD8ABD68CF662309F4C1C12F
:1006100085E990E09BBD8ABD60CF662309F4BEC129
:1006200087EA90E09BBD8ABD58CF84E691E09BBDF0
:100630008ABD53CF662309F4BBC180EE90E09BBD19
:100640008ABD4BCF8DEE90E09BBD8ABD46CF662321
:1006500009F48BC187EC90E09BBD8ABD3ECF662339
:1006600009F474C180E991E09BBD8ABD36CF662351
:1006700009F4CBC184E893E09BBD8ABD2ECF6623ED
:1006800009F4AFC18BE291E09BBD8ABD26CF662302
:1006900009F4B1C182EA92E09BBD8ABD1ECF8CED08
:1006A00091E09BBD8ABD19CF662309F459C187E14A
:1006B00092E09BBD8ABD11CF662309F4B0C188E5E5
:1006C00092E09BBD8ABD09CF8AEC92E09BBD8ABDBA
:1006D00004CF662309F435C186E496E09BBD8ABD4C
:1006E000FCCE662309F482C18AE097E09BBD8ABDF7
:1006F000F4CE86E995E09BBD8ABDEFCE8AEB93E010
:100700009BBD8ABDEACE662309F47AC181EC91E0F3
:100710009BBD8ABDE2CE662309F47CC18BE091E0EB
:100720009BBD8ABDDACE662309F47EC180E591E0E7
:100730009BBD8ABDD2CE662309F4ADC182E293E0AF
:100740009BBD8ABDCACE86E797E09BBD8ABDC5CE5C
:10075000662309F40FC18EEC92E19BBD8ABDBDCE2C
:10076000662309F47AC18DE195E19BBD8ABDB5CEC2
:10077000662309F4DCC080E698E09BBD8ABDADCE5F
:10078000662309F492C180E190E09BBD8ABDA5CEAD
:100790008EE29BE09BBD8ABDA0CE662309F449C1D1
:1007A0008BE190E09BBD8ABD98CE8CE190E09BBD33
:1007B0008ABD93CE662309F441C187E090E09BBDDA
:1007C0008ABD8BCE662309F4DAC08BE090E09BBD36
:1007D0008ABD83CE82E190E09BBD8ABD7ECE66233A
:1007E00009F49BC089E199E19BBD8ABD76CE662361
:1007F00009F429C180E39CE19BBD8ABD6ECE8CEDDE
:100800009DE19BBD8ABD69CE8AE390E09BBD8ABD18
:1008100064CE662309F435C180E290E09BBD8ABDB9
:100820005CCE662309F432C184E290E09BBD8ABDB0
:1008300054CE662309F476C089E290E09BBD8ABD60
:100840004CCE662309F478C081E390E09BBD8ABD5D
:1008500044CE8BE290E09BBD8ABD3FCE662309F477
:1008600093C087E390E09BBD8ABD37CE662309F431
:100870004FC088E190E09BBD8ABD2FCE662309F46E
:10088000F6C082EB94E09BBD8ABD27CE662309F4B7
:1008900016C18DE89AE09BBD8ABD1FCE662309F480
:1008A000D7C086E19EE09BBD8ABD17CE662309F4C2
:1008B000F7C080EC90E19BBD8ABD0FCE662309F4A2
:1008C000D1C08FE294E09BBD8ABD07CE662309F4B8
:1008D000F1C087E699E09BBD8ABDFFCD662309F490
:1008E000CBC08DE89CE09BBD8ABDF7CD8DE596E140
:1008F0009BBD8ABDF2CD662309F4E6C086E495E08F
:100900009BBD8ABDEACD8DEE9EE09BBD8ABDE5CD47
:1009100085E190E09BBD8ABDE0CD82EB97E19BBD78
:100920008ABDDBCD86E290E09BBD8ABDD6CD87EE49
:1009300097E09BBD8ABDD1CD8EE290E09BBD8ABD84
:10094000CCCD8BEE95E09BBD8ABDC7CD8AE791E00B
:100950009BBD8ABDC2CD8EE390E09BBD8ABDBDCD5F
:1009600089EF91E09BBD8ABDB8CD8CEB90E09BBD3B
:100970008ABDB3CD80EC91E19BBD8ABDAECD89E04F
:1009800090E09BBD8ABDA9CD84E390E09BBD8ABD6C
:10099000A4CD8DE890E09BBD8ABD9FCD8EE990E00F
:1009A0009BBD8ABD9ACD8DE790E09BBD8ABD95CD5C
:1009B00083ED90E09BBD8ABD90CD8DE590E09BBD21
:1009C0008ABD8BCD86E490E09BBD8ABD86CD89E64D
:1009D00090E09BBD8ABD81CD8EE490E09BBD8ABD39
:1009E0007CCD8BE191E09BBD8ABD77CD85EA96E019
:1009F0009BBD8ABD72CD8CE792E09BBD8ABD6DCD5B
:100A000088EA91E09BBD8ABD68CD82E593E09BBDFD
:100A10008ABD63CD8CEF90E09BBD8ABD5ECD87E340
:100A200092E09BBD8ABD59CD8DE391E09BBD8ABD0F
:100A300054CD89E190E09BBD8ABD4FCD85E090E02B
:100A40009BBD8ABD4ACD8AE99AE19BBD8ABD45CD51
:100A50008CE49DE09BBD8ABD40CD8DEE93E19BBDB6
:100A60008ABD3BCD83EF93E09BBD8ABD36CD8FE63B
:100A700094E09BBD8ABD31CD88ED9BE09BBD8ABDD6
:100A80002CCD8EE190E09BBD8ABD27CD82E290E027
:100A90009BBD8ABD22CD85EF92E09BBD8ABD1DCD59
:100AA00080ED9FE09BBD8ABD18CD8DE090E09BBDA1
:100AB0008ABD13CD8FED98E09BBD8ABD0ECD86EF2C
:100AC00099E09BBD8ABD09CD8AEF94E09BBD8ABDAC
:100AD00004CD8634910520F08FEF8093E9010895CD
:100AE000FC01E257FF4F0C948E1D22E044E060E0D1
:100AF00081E40C945C0226E044E060E081E40C9424
:100B00005C0222E044E061E081E40C945C0228E0B5
:100B100044E060E084E40C945C0228E044E060E09F
:100B200086E40C945C0226E044E061E082E40C94EC
:100B30005C0228E044E060E083E40C945C0228E07E
:100B400044E060E081E40C945C0228E044E060E072
:100B500087E40C945C0228E044E060E085E40C94B7
:100B60005C0220E144E060E081E40C945C0224E05B
:100B700045E060E083E40C945C0224E045E060E042
:100B800084E40C945C02929A1092FD011092FC0194
:100B900088E090E09093F4018093F3010895929A95
:100BA0001092FD011092FC0181E090E09093F4011D
:100BB0008093F301089520E144E061E082E40C9425
:100BC0005C0228E044E061E082E40C945C0228E1ED
:100BD00044E060E087E40C945C0220E145E060E0E2
:100BE00084E40C945C02929A1092FD011092FC0134
:100BF00082E090E09093F4018093F301089524E063
:100C000044E060E081E40C945C0226E044E060E0B3
:100C100087E40C945C0224E044E061E087E40C94F7
:100C20005C0228E044E061E087E40C945C0223E08D
:100C300044E060E087E40C945C0220E144E060E082
:100C400084E40C945C0220E145E060E083E40C94D1
:100C50005C0222E044E061E082E40C945C0224E067
:100C600045E061E084E40C945C0224E044E061E04F
:100C700081E40C945C0228E044E060E082E40C949F
:100C80005C0228E144E060E086E40C945C0227E02A
:100C900044E060E087E40C945C028F33910520F01F
:100CA0008FEF8093E9010895FC01EC52FF4F0C9403
:100CB0008E1D24E044E060E083E40C945C0228E0B4
:100CC00044E060E085E40C945C02929A1092FD018D
:100CD0001092FC0181E090E09093F4018093F30185
:100CE000089528E044E060E084E40C945C0220E194
:100CF00043E060E083E40C945C0224E044E060E0C4
:100D000084E40C945C0224E043E060E082E40C9410
:100D10005C0227E043E060E081E40C945C0224E0A4
:100D200044E060E086E40C945C0220E142E060E094
:100D300082E40C945C0220E143E060E081E40C94E6
:100D40005C0228E044E060E083E40C945C0220E173
:100D500043E060E084E40C945C0220E143E060E066
:100D600085E40C945C02929A1092FD011092FC01B1
:100D700088E090E09093F4018093F301089527E0D8
:100D800043E060E082E40C945C022CE043E060E02D
:100D900082E40C945C0220E143E061E081E40C9485
:100DA0005C02929A1092FD011092FC0180E190E0A9
:100DB0009093F4018093F301089524E044E060E00F
:100DC00087E40C945C0228E042E060E082E40C944A
:100DD0005C0220E142E060E081E40C945C0220E1EE
:100DE00042E061E081E40C945C022CE044E060E0CD
:100DF00085E40C945C0222E044E060E084E40C941E
:100E00005C0222E044E060E085E40C945C0228E0AF
:100E100043E060E083E40C945C0224E043E060E0A3
:100E200081E40C945C0228E043E060E085E40C94EB
:100E30005C0228E043E060E081E40C945C02929A5A
:100E40001092FD011092FC0184E090E09093F40177
:100E50008093F301089528E044E060E081E40C947D
:100E60005C028539910520F08FEF8093E9010895A8
:100E7000FC01ED5EFE4F0C948E1D24E043E060E02B
:100E800087E40C945C0222E043E060E081E40C948F
:100E90005C02929A1092FD011092FC0182E090E0B7
:100EA0009093F4018093F301089522E044E060E020
:100EB00083E40C945C0222E044E060E085E40C945E
:100EC0005C0224E044E060E084E40C945C0222E0F4
:100ED00044E060E083E40C945C02929A1092FD017D
:100EE0001092FC0182E090E09093F4018093F30172
:100EF000089522E044E060E083E40C945C02929A5E
:100F00001092FD011092FC0182E090E09093F401B8
:100F10008093F301089522E044E060E083E40C94C0
:100F20005C02929A1092FD011092FC0181E090E027
:100F30009093F4018093F301089522E044E060E08F
:100F400083E40C945C02929A1092FD011092FC01D1
:100F500080E190E09093F4018093F301089522E002
:100F600044E060E085E40C945C0222E044E060E050
:100F700084E40C945C0222E044E060E083E40C949E
:100F80005C02929A1092FD011092FC0182E090E0C6
:100F90009093F4018093F301089522E044E060E02F
:100FA00083E40C945C02929A1092FD011092FC0171
:100FB00082E090E09093F4018093F301089522E0A1
:100FC00044E060E083E40C945C02929A1092FD018C
:100FD0001092FC0181E090E09093F4018093F30182
:100FE000089522E044E060E083E40C945C02929A6D
:100FF0001092FD011092FC0184E090E09093F401C6
:101000008093F301089524E043E060E087E40C94CA
:101010005C0222E043E060E081E40C945C02929A7E
:101020001092FD011092FC0182E090E09093F40197
:101030008093F301089522E044E060E083E40C949F
:101040005C0222E044E060E085E40C945C0224E071
:1010500044E060E084E40C945C0222E044E060E060
:1010600083E40C945C02929A1092FD011092FC01B0
:1010700082E090E09093F4018093F301089522E0E0
:1010800044E060E083E40C945C02929A1092FD01CB
:101090001092FC0182E090E09093F4018093F301C0
:1010A000089522E044E060E083E40C945C02929AAC
:1010B0001092FD011092FC0181E090E09093F40108
:1010C0008093F301089522E044E060E083E40C940F
:1010D0005C02929A1092FD011092FC018AE090E06D
:1010E0009093F4018093F301089524E044E060E0DC
:1010F00083E40C945C02929A1092FD011092FC0120
:1011000084E090E09093F4018093F301089522E04D
:1011100044E060E084E40C945C02929A1092FD0139
:101120001092FC0182E090E09093F4018093F3012F
:10113000089524E044E061E085E40C945C02929A16
:101140001092FD011092FC0184E090E09093F40174
:101150008093F301089522E044E060E084E40C947D
:101160005C0222E044E060E083E40C945C0222E054
:1011700043E060E081E40C945C02929A1092FD01DD
:101180001092FC0182E090E09093F4018093F301CF
:10119000089522E044E060E083E40C945C0222E0E5
:1011A00043E060E081E40C945C0222E043E061E013
:1011B00081E40C945C02929A1092FD011092FC0161
:1011C00082E090E09093F4018093F301089522E08F
:1011D00044E060E085E40C945C02929A1092FD0178
:1011E0001092FC0182E090E09093F4018093F3016F
:1011F000089522E044E061E085E40C945C0222E082
:1012000044E060E086E40C945C0222E044E061E0AB
:1012100087E40C945C0222E044E060E087E40C94F4
:101220005C02929A1092FD011092FC0188E090E01D
:101230009093F4018093F301089524E044E060E08A
:1012400087E40C945C02929A1092FD011092FC01CA
:1012500081E090E09093F4018093F301089521E000
:1012600044E060E087E40C945C02929A1092FD01E5
:101270001092FC0182E090E09093F4018093F301DE
:10128000089522E044E060E087E40C945C02929AC6
:101290001092FD011092FC0182E090E09093F40125
:1012A0008093F301089522E043E060E085E40C942C
:1012B0005C02929A1092FD011092FC0182E090E093
:1012C0009093F4018093F301089522E043E061E0FC
:1012D00085E40C945C0222E043E060E086E40C9438
:1012E0005C0222E043E061E087E40C945C0222E0CF
:1012F00043E060E087E40C945C02929A1092FD0156
:101300001092FC0184E090E09093F4018093F3014B
:10131000089522E044E060E084E40C945C0222E062
:1013200044E060E083E40C945C0222E043E060E08F
:1013300081E40C945C02929A1092FD011092FC01DF
:1013400082E090E09093F4018093F301089522E00D
:1013500044E060E083E40C945C0222E043E060E05F
:1013600081E40C945C0222E043E061E081E40C94AF
:101370005C02929A1092FD011092FC0182E090E0D2
:101380009093F4018093F301089522E044E060E03B
:1013900085E40C945C02929A1092FD011092FC017B
:1013A00082E090E09093F4018093F301089522E0AD
:1013B00044E061E085E40C945C0222E044E060E0FB
:1013C00086E40C945C0222E044E061E087E40C9443
:1013D0005C0222E044E060E087E40C945C02929AB4
:1013E0001092FD011092FC0188E090E09093F401CE
:1013F0008093F301089522E043E060E082E40C94DE
:101400005C0222E044E060E084E40C945C0222E0B0
:1014100044E060E083E40C945C02929A1092FD0137
:101420001092FC0182E090E09093F4018093F3012C
:10143000089522E044E060E085E40C945C02929A16
:101440001092FD011092FC0182E090E09093F40173
:101450008093F301089522E044E060E087E40C9477
:101460005C0222E044E060E086E40C945C0224E04C
:1014700044E060E081E40C945C0222E044E060E03F
:1014800087E40C945C02929A1092FD011092FC0188
:1014900081E090E09093F4018093F301089522E0BD
:1014A00044E060E085E40C945C0223E043E060E00B
:1014B00087E40C945C0224E043E060E081E40C9457
:1014C0005C0222E043E061E082E40C945C02929AC8
:1014D0001092FD011092FC0182E090E09093F401E3
:1014E0008093F301089522E043E060E082E40C94ED
:1014F0005C02929A1092FD011092FC0182E090E051
:101500009093F4018093F301089522E043E060E0BA
:1015100081E40C945C02929A1092FD011092FC01FD
:1015200082E090E09093F4018093F301089524E029
:1015300043E060E085E40C945C02929A1092FD0115
:101540001092FC0183E090E09093F4018093F3010A
:10155000089522E043E060E087E40C945C02929AF4
:101560001092FD011092FC0182E090E09093F40152
:101570008093F301089525E044E060E083E40C9457
:101580005C02929A1092FD011092FC0184E090E0BE
:101590009093F4018093F301089522E043E060E02A
:1015A00082E40C945C0222E044E060E084E40C9469
:1015B0005C0222E044E060E083E40C945C02929AD6
:1015C0001092FD011092FC0182E090E09093F401F2
:1015D0008093F301089522E044E060E085E40C94F8
:1015E0005C02929A1092FD011092FC0182E090E060
:1015F0009093F4018093F301089522E044E060E0C9
:1016000087E40C945C0222E044E060E086E40C9401
:101610005C0224E044E060E081E40C945C0222E09F
:1016200044E060E087E40C945C02929A1092FD0121
:101630001092FC0181E090E09093F4018093F3011B
:10164000089522E044E060E085E40C945C0223E02D
:1016500043E060E087E40C945C0224E043E060E057
:1016600081E40C945C0222E043E061E082E40C94AB
:101670005C02929A1092FD011092FC0182E090E0CF
:101680009093F4018093F301089522E043E060E039
:1016900082E40C945C02929A1092FD011092FC017B
:1016A00082E090E09093F4018093F301089522E0AA
:1016B00043E060E081E40C945C02929A1092FD0198
:1016C0001092FC0182E090E09093F4018093F3018A
:1016D000089524E043E060E085E40C945C02929A73
:1016E0001092FD011092FC0184E090E09093F401CF
:1016F0008093F301089522E043E060E087E40C94D6
:101700005C0225E044E060E083E40C945C02929A81
:101710001092FD011092FC0188E090E09093F4019A
:101720008093F301089528E042E060E087E40C94A0
:101730005C0228E044E060E087E40C945C0224E072
:1017400044E060E085E40C945C0222E044E060E068
:1017500083E40C945C02929A1092FD011092FC01B9
:1017600082E090E09093F4018093F301089522E0E9
:1017700044E060E085E40C945C02929A1092FD01D2
:101780001092FC0181E090E09093F4018093F301CA
:10179000089523E044E060E085E40C945C02929AB2
:1017A0001092FD011092FC0181E090E09093F40111
:1017B0008093F301089521E044E060E085E40C9417
:1017C0005C02929A1092FD011092FC0188E090E078
:1017D0009093F4018093F30108958F31910520F0E7
:1017E0008FEF8093E9010895FC01E855FE4F0C94BA
:1017F0008E1D929A1092FD011092FC0181E090E002
:101800009093F4018093F301089524E045E060E0B3
:1018100085E40C945C0227E044E060E085E40C94ED
:101820005C0227E044E061E085E40C945C02929A5B
:101830001092FD011092FC0185E090E09093F4017C
:101840008093F301089528E045E060E085E40C947E
:101850005C0223E044E061E085E40C945C0223E058
:1018600044E060E085E40C945C0228E045E060E040
:1018700087E40C945C0224E045E061E085E40C948C
:101880005C0223E045E060E085E40C945C0224E027
:1018900045E061E087E40C945C0228E045E061E00B
:1018A00087E40C945C02813089F060F0823031F082
:1018B000833041F4862F90E00C94ED0B862F90E05E
:1018C0000C943107862F90E00C946905862F90E0E8
:1018D0000C944D061092E9018EB58C7F8EBD929AC4
:1018E00081E08093DF0108951092E9018EB5836055
:1018F0008EBD92986091E9018091ED010E94530C98
:101900001092DF01089587B7806187BF1FBC8EB535
:1019100088608EBD10927A0081E390E09BBD8ABD05
:101920001092E9018EB58C7F8EBD929A81E08093F2
:10193000DF011092FD011092FC011092F40110924F
:10194000F3011092E9018093ED0108951F920F9227
:101950000FB60F9211240BB60F922F933F934F9314
:101960005F936F937F938F939F93AF93BF93EF9307
:10197000FF9382B3805882BB2091FC013091FD011E
:101980008091F3019091F4012817390758F0809164
:10199000E9018F5F8093E9016091E9018091ED0198
:1019A0000E94530CFF91EF91BF91AF919F918F9146
:1019B0007F916F915F914F913F912F910F900BBE4F
:1019C0000F900FBE0F901F901895E82FF0E0C89968
:1019D0001DC089B3EE0FFF1FE753FE4F8095282FE0
:1019E000217030E0306E80819181880F991F282B03
:1019F000392B3183208381E090E02091C90130911F
:101A0000CA012115304F09F080E0089549B3EE0F67
:101A1000FF1FE753FE4F20813181220F331F306EAD
:101A200050E002C0559547958A95E2F741705527D9
:101A3000242B352B3183208381E090E02115304F1A
:101A400021F380E0E2CF8F929F92BF92CF92DF92FC
:101A5000EF92FF920F931F93CF93DF93409100017A
:101A6000EBEB8E2EE1E09E2E20E030E05FEFF4E025
:101A7000BF2EA0E9CA2EB0E8DB2EC8EFEC2ED2E8CC
:101A8000FD2E02E919E9D0EBC4EA79EF60EC4130B0
:101A900001F141110AC0D901A950BE4F8C9190E0CB
:101AA0008C30910518F1F40150832F5F3F4FFFEF09
:101AB0008F1A9F0A2530310551F7DF91CF911F9181
:101AC0000F91FF90EF90DF90CF90BF909F908F90FD
:101AD0000895D901AC51BE4F8C9190E08C309105A6
:101AE00010F789539E4FFC010C948E1D8D529E4F12
:101AF000FC010C948E1DF401C082D7CFF401D0827A
:101B0000D4CFF401E082D1CFF401F082CECFF40142
:101B10000083CBCFF4011083C8CFF401D083C5CFAD
:101B2000F401C083C2CFF4017083BFCFF40160839E
:101B3000BCCFF401B082B9CF21E030E060E250E3E5
:101B400040E1C90101978230910539F18330910557
:101B50008CF083309105D1F1049751F580E488BB76
:101B60008091BF018BBB8FE39FE10197F1F700C02C
:101B7000000008950197E1F448BB8091BC018BBB44
:101B80008FE39FE10197F1F700C000002F5F3F4F07
:101B9000C901019782309105C9F668BB8091BD01EA
:101BA0008BBB8FE39FE10197F1F700C00000EECF00
:101BB00018BA8091BB018BBB8FE39FE10197F1F7CE
:101BC00000C000002530310509F7089558BB809109
:101BD000BE018BBB8FE39FE10197F1F700C00000CE
:101BE000D5CF8DB180658DB9709A089580B7886022
:101BF00080BF87B7816087BF83B7816083BF089547
:101C0000BF9A85B515BC85B5886785BD85B58160EA
:101C100085BD13BC0895139A1B9AEBE8F0E0808110
:101C2000826C8083EAE8F0E0808189618083109291
:101C30008C008FEF9FE09093810080938000089547
:101C4000E1E6F0E080818E7F8083E2E6F0E0808153
:101C50008E7F808387B1806687B986B1886E86B9AA
:101C600086B1876086B9089513B81F9A982F9C7023
:101C700029F1892F90E09595879595958795382F2F
:101C8000209124022130D1F108F4B2C0223009F4AD
:101C900095C0233009F046C020912802213009F474
:101CA000FBC0223009F4CEC023E020932802332366
:101CB000B1F13130C1F13230B1F1089583709091BA
:101CC0002102913009F451C088F1923009F461C0C9
:101CD000933009F05AC090913B02913009F4C5C08D
:101CE000923009F4A8C093E090933B02882309F452
:101CF00049C0813059F1823049F12AC0409128020F
:101D0000442309F48DC0433029F4209304012FEFBC
:101D10002093E30121E020932802311175C0109235
:101D20002402089583E080932402089590913B0259
:101D3000923009F494C0913009F477C010923B02BC
:101D4000813021F0823011F0833011F48093210230
:101D5000833009F0B2CF8091B3018111AECF809171
:101D6000BA0180688093BA01089520913B02211145
:101D70004EC0909304019093E30191E090933B0255
:101D80008111E0CF10922102E3CF93E090932102E2
:101D9000DFCF90913B02933009F46CC0911106C0E3
:101DA00091E0909304019FEF9093E30192E0909370
:101DB0003B02882339F3813049F2C6CF20912802B3
:101DC000233009F45DC0211106C021E020930401F5
:101DD0002FEF2093E30122E020932802332309F41C
:101DE0009ECF313009F49FCF333009F49CCF65CFBB
:101DF00020912802223009F449C0213051F110927B
:101E00002802313009F48FCF323071F78CCF233074
:101E100009F0B3CF909304019FEF9093E301ADCF0E
:101E2000209304012093E30175CF909304019FEF69
:101E30009093E30183CF91E0909304019FEF9093FF
:101E4000E30151CF21E0209304012FEF2093E30120
:101E50002BCF209304012FEF2093E301D0CF91E00B
:101E6000909304019093E30169CF909304019093C0
:101E7000E30139CF91E0909304019093E30196CF71
:101E800021E0209304012093E301A5CF21E02093DA
:101E900004012093E301B3CF209304012093E301D5
:101EA00003CF1F920F920FB60F9211242F933F93DF
:101EB0008F939F932091E3018AE0280290011124DF
:101EC0003093EC012093EB01809186009091870084
:101ED000821B930B909387008093860080918600ED
:101EE000909187008436910560F081E08093010134
:101EF0009F918F913F912F910F900FBE0F901F9048
:101F0000189510920101F4CF1F920F920FB60F9205
:101F100011248F939F9385B1803110F49FEF93BD6F
:101F200090EF980F903110F490EF93BD91EE980FD1
:101F3000903110F491EE93BD91ED980F903110F423
:101F400092ED93BD91EC980F903110F493EC93BD0A
:101F500091EB980F903110F494EB93BD91EA980FA8
:101F6000903110F495EA93BD92E9980F903110F4F6
:101F700096E993BD92E8980F903110F497E893BDDD
:101F800092E7980F903110F498E793BD92E6980F7E
:101F9000903110F499E693BD92E5980F903110F4CA
:101FA0009AE593BD92E4980F903110F49BE493BDB1
:101FB00092E3980F903110F49CE393BD92E2980F56
:101FC000903110F49DE293BD8E5E803110F48EE16D
:101FD00083BD9F918F910F900FBE0F901F9018950A
:101FE0008091AB01882389F08091EE018F5F80930F
:101FF000EE01877049F48091FC019091FD010196FA
:102000009093FD018093FC0108950E94740C81E07F
:10201000809301018093AB011092AA0108958091F1
:10202000AD0181111DC08091AC0181111BC0809157
:10203000BA019091B60184FD3CC08091AF01981720
:1020400009F447C01092E9018EB58C7F8EBD929A3B
:1020500081E08093DF01109201011092AB0108959D
:10206000813029F08091A9018130E1F008958091BB
:10207000AC018111F7CF2091B7018091BA012C30CA
:1020800099F185FF4CC09091B6018091AF019813F2
:10209000D9CF30E08091AE0190E00C962817390737
:1020A00089F605C08091ED018F5F8093ED010C945E
:1020B000F00F8091AF019813C5CF2091B70130E0A8
:1020C0008091AE0190E00C972817390709F0BACF3C
:1020D000EECF9091B7018091AE019813B3CF80916C
:1020E000AA018111AFCFE3CF85FF0BC09091B6015C
:1020F0008091AF019813A6CF8091AE018111A2CF3C
:10210000D6CF84FFB3CF9091B6018091AF019813E1
:1021100099CF8091AE018C3009F094CFC8CF08954B
:102120008F7789F491E08091F601811138C0909306
:10213000F6018091B5018F5F8093B50191112BC09D
:102140008AE08093E60180910E02811115C0809192
:10215000B5018C3309F467C00E940F108091B10162
:10216000813009F44CC0811105C08091DC018130BF
:1021700009F48CC080910E028130A1F0809102019F
:102180008130B1F168F1823061F48091BA018F78C9
:102190008093BA0108958BE08093E601D4CF90E05C
:1021A000C6CF08959091B301913009F481C0923067
:1021B00009F450C0933009F45EC09430F9F6809170
:1021C000DC01813009F4DEC08091AE01883108F471
:1021D000A8C0883109F432C187E18093AE01CECF27
:1021E0009091BA01892F8F7880628093BA01089507
:1021F0008091BA018F7880618093BA01089590919F
:10220000B7019C3008F45FC09C3009F081C0909108
:10221000AD01913011F08093020181E08093DC01E7
:1022200080910E02A9CF8091B6018F5F8093B60195
:102230001092B5018C3309F08FCF8091B7018F5F79
:102240008093B7011092B601883109F085CF1092C2
:10225000B70182CF9091DC01913009F476C0809172
:10226000B701883108F467C0883109F4EAC087E112
:102270008093B70183CF8091AF018C33B8F18C3359
:1022800009F4A6C0845C8093AF0178CF8091B70138
:102290008C3009F493C09091BA0194FF03C0845F1D
:1022A0008093B7011092DC0182E08093020162CF3B
:1022B0008091B6018C3380F08C3309F4B7C0845C14
:1022C0008093B6015BCF9923D9F09091BA0194FD28
:1022D000A4CF10920201A1CF2091E30190910401BB
:1022E000299F800D11248093B60148CF2091E301EE
:1022F00090910401299F800D11248093AF013ECF5E
:102300009CE09093B7018093AD011092020185CFBC
:10231000983109F48EC09C509093B70180930201CC
:102320007CCF2091E30190910401299F800D11241D
:102330008093AE0123CF2091E30190910401299F66
:10234000800D11248093B70119CF9091BA0195FFA8
:1023500058C09091B7012FEF290F2C3008F074C0AE
:102360009C3009F49AC02091E30180910401289FD8
:10237000900D11249093B7019C30E9F081E0809397
:10238000AC01FCCE9091BA0195FF25C02091AE0121
:102390003FEF320F3C3008F05DC02C3009F4AAC08A
:1023A0009091E30180910401989F200D11242093C6
:1023B000AE012C3019F71092AC01E0CE8091AD0146
:1023C000813009F06FCF1092B7011092AD016ACF42
:1023D0001092AF01D3CE8091AE012FEF280F2C3099
:1023E00008F03EC08C3009F441C02091E301909187
:1023F0000401299F800D11248093AE018C30D9F601
:10240000BDCF8091B7019FEF980F9C3060F58C3065
:1024100009F45AC02091E30190910401299F800D95
:1024200011248093B7018C3031F6A8CF1092B601F9
:10243000A5CE1092B70110920201EFCE1092AE011C
:102440009DCE1092B7019ACE911198CE8CE08093D8
:10245000B70194CE211192CE8CE08093AE018ECE46
:102460008823D1F38BCE882389F388CE8091AC0169
:10247000813081F02091E30180910401289F802D1B
:102480001124845F8093AE018D3009F44AC08B30F3
:1024900009F074CE10920201A5CE9091AC0199235F
:1024A00081F09091E30180910401989F802D112487
:1024B000845F8093B7018D30C1F18B3009F05ECE1F
:1024C00081E0809302015ACE8091AC01813079F095
:1024D0009091E30180910401989F802D1124845FE5
:1024E0008093B7018D3009F18B3009F047CE1092FF
:1024F000020144CE2091AC01222379F03091E30116
:1025000020910401329F202D1124245F2093AE01DD
:102510002D3039F02B3009F031CE80930201892F14
:1025200069CE81E08093AE0129CE81E08093B7012E
:1025300025CE1092E9018EB58C7F8EBD929A81E0F6
:102540008093DF01109201011092AB0108958F7703
:1025500059F48091B0018F5F8093B0018B3020F0EF
:102560008B3019F00C94F00F08950E94F00F0E9428
:10257000751881E191E00E9439180E946B168AE17A
:1025800091E00C9439188823B1F08091B301811146
:10259000A2C0809103018F5F8093030110920E020D
:1025A0008091BA01807781608093BA018091A901FE
:1025B000813009F4B1C0809103010E949010809194
:1025C000B301823009F4B0C008F04FC0882309F489
:1025D000F4C0813009F09FC08091DD018F7349F50F
:1025E00081E09091EA01911180E08093EA019AE004
:1025F0009093E4019093E50181111BC02091B601F5
:102600009DEC299F812D11248695869586953AE02B
:10261000839F201911242093E401899F912D112477
:102620009695969596952AE0929F8019112480930D
:10263000E5012091B7019DEC299F812D11248695FC
:10264000869586953AE0839F201911242093E7010F
:10265000899F912D11249695969596952AE0929FA3
:10266000801911248093E8010895833009F4C3C0D0
:10267000843009F04FC0809103018F7349F581E0E8
:1026800090912202911180E0809322029AE090932F
:10269000E4019093E50181111BC02091AF019DECF5
:1026A000299F812D11248695869586953AE0839FF2
:1026B000201911242093E401899F912D11249695CE
:1026C000969596952AE0929F801911248093E501B2
:1026D0002091AE01B0CF9FEF980F923058F49091B7
:1026E000DD019F5F9093DD019091BA019077926038
:1026F0009093BA018350823008F058CF8091030143
:102700008F5F809303018091BA018077846080930A
:10271000BA014CCF089508958091DD018F5F8093B9
:10272000DD010E94A71247CF8091DD018F7349F52B
:1027300081E09091EA01911180E08093EA019AE0B2
:102740009093E7019093E80181111BC02091B7019C
:102750009DEC299F812D11248695869586953AE0DA
:10276000839F201911242093E701899F912D112423
:102770009695969596952AE0929F801911248093BC
:10278000E8012091B6019DEC299F812D11248695A9
:10279000869586953AE0839F201911242093E401C1
:1027A000899F912D11249695969596952AE0929F52
:1027B000801911248093E50108952091B6019DECC4
:1027C000299F812D11248695869586953AE0839FD1
:1027D000201911242093E401899F212D112426958D
:1027E000269526953AE0239F801911248093E501D0
:1027F0002091B70121CF809103018F7349F581E0CA
:1028000090912202911127C0809322029AE0909326
:10281000E7019093E80181111BC02091AE019DEC6E
:10282000299F812D11248695869586953AE0839F70
:10283000201911242093E701899F912D1124969549
:10284000969596952AE0929F801911248093E8012D
:102850002091AF0198CF80E0D7CF1F920F920FB693
:102860000F9211240BB60F922F933F934F935F93C8
:102870006F937F938F939F93AF93BF93EF93FF9348
:1028800081E00E94C3128FB10E94340E8091BA0180
:102890008FB9779BFECFC09AC098FF91EF91BF91FF
:1028A000AF919F918F917F916F915F914F913F91E8
:1028B0002F910F900BBE0F900FBE0F901F90189589
:1028C0000E94351642E064E972E080E90E94BD157D
:1028D0008091940290E0982F882720919502822B76
:1028E000880F892F881F990B91959093F001809301
:1028F000EF014AE050E061E172E00E94941D8EE237
:1029000091E00E94391881E192E00E94391882E337
:1029100091E00C94391884E391E00E943918809179
:10292000E201813011F00C946B168BE292E00E9470
:10293000391882E391E00E9439181092E2010C9458
:102940006B161F920F920FB60F9211240BB60F92B7
:102950008F939F93EF93FF938CB180933C02E09110
:10296000DA0191E09E0F9093DA01F0E0E55DFD4F12
:102970008083811109C081E08093E20180E280833D
:10298000818382831092DA01FF91EF919F918F9161
:102990000F900BBE0F900FBE0F901F901895129ABC
:1029A0001A9A1C98149A1A9A8FE193E00197F1F7FA
:1029B00000C000001A9890EA9A95F1F714980895CB
:1029C0001F920F920FB60F9211248F9381E0809384
:1029D000230288B7806888BF8F910F900FBE0F9039
:1029E0001F9018952091E30188EC289F202D112439
:1029F0002093D90180910F0190911001820F911DB8
:102A00009093100180930F019F938F9388E391E03F
:102A10009F938F938EEF91E09F938F930E94C41D9D
:102A20000E9439180F900F900F900F900F900F90F9
:102A30000C946B161F920F920FB60F9211240BB6C7
:102A40000F922F933F938F939F93AF93BF93EF93E7
:102A5000FF938091710090E0FC013897E135F1051A
:102A6000B0F08091710080933D0284E08093740007
:102A7000FF91EF91BF91AF919F918F913F912F91D6
:102A80000F900BBE0F900FBE0F901F901895E15244
:102A9000FE4F0C948E1D8091DB01E0913E02F0917F
:102AA0003F02E80FF11D80917300808384E98093D9
:102AB0007400DECF80914002809373001092DB019E
:102AC00085E880937400D4CF8091DB01909141021E
:102AD000891760F7E0913E02F0913F0291E0980F74
:102AE0009093DB01E80FF11D80818093730085E8EE
:102AF00080937400BDCF85EA80937400B9CF209194
:102B0000DB018091410230E090E0019728173907FE
:102B1000DCF485EC80937400ABCFE0913E02F09141
:102B20003F028091DB0121E0280F2093DB01E80FB9
:102B3000F11D8091730080838091410230E090E02C
:102B40000197281739072CF385E88093740090CFFC
:102B500080917400817008959091740090FDFCCF75
:102B60008E7F8093400270933F0260933E024093B9
:102B7000410285EA8093740008959091740090FD5D
:102B8000FCCF81608093400270933F0260933E02CD
:102B90004093410285EA8093740008958FEF8093FB
:102BA0007300109271008CE08093700008955D9B1B
:102BB000FECF8CB95D9BFECF0895FC0120812223BE
:102BC00049F031965D9BFECF2CB95D9BFECF2191E4
:102BD0002111F8CF08959C01FC014491442369F030
:102BE0000196F90124915D9BFECF2CB95D9BFECF30
:102BF0009C01FC0144914111F3CF08958AB1886989
:102C00008AB9E5E9F0E080818660808310929000C7
:102C100087E689B9089580E89EE303C0019700978D
:102C200021F05F9BFBCF8CB1089580E0089584E094
:102C30008093920280E68093930242E062E972E020
:102C400080E90C94AC151092920241E062E972E0C6
:102C500080E90C94AC150895E2E6F0E0808188608C
:102C600080838081877F808308951FB8779BFECF04
:102C700081E08FB9779BFECF80916200886080935E
:102C8000620080916200877F809362008FE891E00C
:102C90000197F1F700C000008FE39FE10197F1F782
:102CA00000C0000008951FB8779BFECF80E88FB961
:102CB000779BFECF80916200886080936200809154
:102CC0006200877F809362008FE891E00197F1F7BF
:102CD00000C0000008951FB8779BFECF80EC8FB92D
:102CE000779BFECF80916200886080936200809124
:102CF0006200877F809362008FE891E00197F1F78F
:102D000000C0000008951FB8779BFECF8FE08FB9F9
:102D1000779BFECF809162008860809362008091F3
:102D20006200877F809362008FE891E00197F1F75E
:102D300000C0000008951FB8779BFECF8CE08FB9CC
:102D4000779BFECF809162008860809362008091C3
:102D50006200877F809362008FE891E00197F1F72E
:102D600000C000000895603120F4813019F08230F5
:102D7000C9F0089560581FB8779BFECF6FB9779B55
:102D8000FECF809162008860809362008091620033
:102D9000877F809362008FE891E00197F1F700C090
:102DA000000008956054E7CF80E190E041E030E218
:102DB0004FB9779BFECF3FB9779BFECF2091620042
:102DC00028602093620020916200277F2093620098
:102DD000EFE8F1E03197F1F700C0000001970097AC
:102DE00039F70895843608F45DC09CE9980F94364D
:102DF00008F45CC0885C22E391E09FB9779BFECF2A
:102E00002FB9779BFECF90916200986090936200FB
:102E100090916200977F90936200EFE8F1E0319724
:102E2000F1F700C0000091E08A30C0F190E09F5FB0
:102E30008A508A30E0F721E02FB9779BFECF905D72
:102E40009FB9779BFECF909162009860909362004B
:102E500090916200977F90936200EFE8F1E03197E4
:102E6000F1F700C000008823F9F0805D91E09FB980
:102E7000779BFECF8FB9779BFECF809162008860F1
:102E80008093620080916200877F809362008FE868
:102E900091E00197F1F700C000000895913019F713
:102EA00090E0C9CF90E0C0CF80E3E0CF892F21E34D
:102EB000A3CF803127E2920708F4BFC020E001C011
:102EC000232F31E0320F80519742803147E294073F
:102ED000B8F731E03FB9779BFECF2F5C2FB9779BD6
:102EE000FECF209162002860209362002091620052
:102EF000277F20936200EFE8F1E03197F1F700C0FF
:102F0000000021E0883EF3E09F0708F48EC020E037
:102F10002F5F885E9340883E33E09307C8F731E027
:102F20003FB9779BFECF205D2FB9779BFECF2091D5
:102F3000620028602093620020916200277F209326
:102F40006200EFE8F1E03197F1F700C0000031E0F6
:102F50008436910508F465C020E02F5F84569109FE
:102F600084369105D0F7222309F45BC031E03FB9E4
:102F7000779BFECF205D2FB9779BFECF209162001B
:102F800028602093620020916200277F20936200D6
:102F9000EFE8F1E03197F1F700C0000031E08A304E
:102FA0009105D8F120E02F5F0A978A309105D8F774
:102FB000222399F131E03FB9779BFECF205D2FB9F5
:102FC000779BFECF209162002860209362002091C1
:102FD0006200277F20936200EFE8F1E03197F1F77C
:102FE00000C00000009759F1805D91E09FB9779B88
:102FF000FECF8FB9779BFECF80916200886080936F
:10300000620080916200877F809362008FE891E088
:103010000197F1F700C000000895313019F720E062
:10302000C9CF313041F030E0BACF213011F030E07B
:103030008FCF20E074CF20E099CF20E063CF80E3F2
:10304000D4CF91E09FB9779BFECF8FB9779BFECF0E
:103050008091620088608093620080916200877F27
:10306000809362008FE891E00197F1F700C00000C3
:103070000895DC0120E030E090E041E04FB9779B1B
:10308000FECFFD01E20FF31F80818FB9779BFECF4A
:103090008091620088608093620080916200877FE7
:1030A00080936200EFE8F1E03197F1F700C0000093
:1030B0009F5F292F30E0FD0101900020E9F7EA1B16
:1030C000FB0B3297E217F307C8F60895E1E6F0E04C
:1030D00080818860808388B388BB87B3876087BB23
:1030E00080E58DB981E08EB9089580916100886096
:1030F0008093610088B388BB87B3876087BB80E516
:103100008DB981E08EB98091610088608093610003
:103110008FE59AEE0197F1F700C000001FB8779B8A
:10312000FECF88E38FB9779BFECF809162008860E5
:103130008093620080916200877F809362008FE8B5
:1031400091E00197F1F700C000008FE19EE4019744
:10315000F1F700C000001FB8779BFECF88E08FB961
:10316000779BFECF8091620088608093620080919F
:103170006200877F809362008FE891E00197F1F70A
:1031800000C000008FE39FE10197F1F700C000004D
:103190001FB8779BFECF86E08FB9779BFECF8091DB
:1031A000620088608093620080916200877F8093D4
:1031B00062008FE891E00197F1F700C000001FB8AE
:1031C000779BFECF80E48FB9779BFECF8091620022
:1031D00088608093620080916200877F80936200A4
:1031E0008FE891E00197F1F700C0000081E08FB90E
:1031F000779BFECF8EE08FB9779BFECF80916200E8
:1032000088608093620080916200877F8093620073
:103210008FE891E00197F1F700C0000081E08FB9DD
:10322000779BFECF8BE18FB9779BFECF80916200B9
:1032300088608093620080916200877F8093620043
:103240008FE891E00197F1F700C0000081E08FB9AD
:10325000779BFECF81E18FB9779BFECF8091620093
:1032600088608093620080916200877F8093620013
:103270008FE891E00197F1F700C0000081E08FB97D
:10328000779BFECF81E18FB9779BFECF8091620063
:1032900088608093620080916200877F80936200E3
:1032A0008FE891E00197F1F700C0000081E08FB94D
:1032B000779BFECF81E18FB9779BFECF8091620033
:1032C00088608093620080916200877F80936200B3
:1032D0008FE891E00197F1F700C0000081E08FB91D
:1032E000779BFECF81E18FB9779BFECF8091620003
:1032F00088608093620080916200877F8093620083
:103300008FE891E00197F1F700C0000081E08FB9EC
:10331000779BFECF81E18FB9779BFECF80916200D2
:1033200088608093620080916200877F8093620052
:103330008FE891E00197F1F700C0000081E08FB9BC
:10334000779BFECF8FE18FB9779BFECF8091620094
:1033500088608093620080916200877F8093620022
:103360008FE891E00197F1F700C000001FB8779B4C
:10337000FECF81E08FB9779BFECF8091620088609D
:103380008093620080916200877F809362008FE863
:1033900091E00197F1F700C000008FE19EE40197F2
:1033A000F1F700C000001FB8779BFECF8CE08FB90B
:1033B000779BFECF8091620088608093620080914D
:1033C0006200877F809362008FE891E00197F1F7B8
:1033D00000C00000089584E18093A60241E066EAFF
:1033E00072E082E20E94AC150E94A8158111FCCF08
:1033F0008FEA94E00197F1F700C0000041E067EC2C
:1034000072E082E20E94BD150E94A8158111FCCFD6
:103410008091C702089580E28093A6021092A702CD
:1034200080910F01909110019093A8028093A902BE
:103430001092AA021092230245E066EA72E082E24C
:103440000C94AC1580E48093A6021092A7028091A0
:103450000F02909110029093A8028093A9021092FB
:10346000AA021092AB021092230246E066EA72E0D2
:1034700082E20E94AC15809123028823E1F3089533
:1034800080E48093A6021092A70280912502909179
:1034900026029093A8028093A9021092AA0281E0CA
:1034A0008093AB0246E066EA72E082E20E94AC15CD
:1034B0002FEF87EE93E0215080409040E1F700C06D
:1034C000000008958091C6019091C7018130910557
:1034D00051F100F1029741F46091250270912602AA
:1034E00089E292E00E9409206091F5018EED91E061
:1034F0000E94FC1F81E18093A60241E066EA72E02F
:1035000082E20E94AC1587ED94E00197F1F700C0CC
:103510000000089560910F017091100180EE91E01C
:103520000E940920E1CF60910F027091100281EF9B
:1035300091E00E940920D8CF83E28093A60281E027
:103540008093A70242E066EA72E082E20E94AC1534
:103550000E94A8158111FCCF8FEA94E00197F1F742
:1035600000C0000048E06FEA72E082E20E94BD15F0
:103570000E94A8158111FCCF089582E28093A602D3
:1035800081E08093A70242E066EA72E082E20E9454
:10359000AC150E94A8158111FCCF8FEA94E0019729
:1035A000F1F700C0000048E06FEA72E082E20E949A
:1035B000BD150E94A8158111FCCF089582E4809367
:1035C000A60281E08093A70242E066EA72E082E20E
:1035D0000E94AC150E94A8158111FCCF8FEA94E0DF
:1035E0000197F1F700C0000048E06FEA72E082E264
:1035F0000C94BD1583E48093A60281E08093A7021A
:1036000042E066EA72E082E20E94AC150E94A815D0
:103610008111FCCF8FEA94E00197F1F700C0000020
:1036200048E06FEA72E082E20C94BD1522E120933B
:10363000A6021092A7029093A8028093A902709309
:10364000AA026093AB0246E066EA72E082E20E9460
:10365000AC158FE39CE90197F1F700C000000895D5
:1036600081E08093A60280E58093A70285E08093A5
:10367000A80243E066EA72E082E20E94AC152FEFF6
:1036800082E597E0215080409040E1F700C00000C3
:1036900061E070E081E090E00C94161B81EF91E016
:1036A0000E94F61F9093100280930F028EED91E01E
:1036B0000E94EE1F8093F50181E08093A60281E5D0
:1036C0008093A70285E08093A80243E066EA72E057
:1036D00082E20E94AC152FEF8BED95E021508040E7
:1036E0009040E1F700C0000061E070E081E090E010
:1036F0000C94161B89E292E00E94F61F909326021A
:10370000809325028EED91E00E94EE1F8093F501DB
:1037100081E08093A60281E58093A70285E08093F3
:10372000A80243E066EA72E082E20E94AC152FEF45
:103730008BED95E0215080409040E1F700C0000003
:1037400060E070E082E093E30E94161B61E071E0AC
:1037500082E091E30E94161B61E070E081E090E05E
:103760000C94161B1F98179A1A9A8FE193E00197F1
:10377000F1F700C000001A9890EA9A95F1F71798AF
:10378000089589B7806889BF8AB7806C8ABF089519
:103790000E94A8158111FCCF0E949C1A8091B3024F
:1037A0008930B0F0813180F08931A8F08132B8F0F1
:1037B0008932C8F08133D8F08933E8F08134F8F0E9
:1037C0008FEF80932702089581E080932702089568
:1037D00010922702089583E080932702089587E0DE
:1037E0008093270208958FE08093270208958FE148
:1037F0008093270208958FE38093270208958FE72F
:103800008093270208950E94CF148FEF87BB92B157
:1038100082B91ABA0E94830C8DB180658DB9709AF5
:103820000E94200E80B7886080BF87B7816087BF05
:1038300083B7816083BFBF9A85B515BC85B588679E
:1038400085BD85B5816085BD13BC0E940B0E0E94AD
:10385000CE150E94FE150E94751878940E94301BA8
:103860000E940B1A2FEF83ED90E32150804090408F
:10387000E1F700C00000C6E0D7E2D0931001C0938A
:103880000F010E940B1AD0931001C0930F010E94E8
:103890000B1AD0931001C0930F010E940B1AD09302
:1038A0001001C0930F010E940B1AD0931001C09316
:1038B0000F010E940B1A0E94231681E08093A80139
:1038C000DFEF10E7C1E004E080C082E00E94E50C79
:1038D000892B41F11092A801C09300011092E901D7
:1038E0008EB58C7F8EBD929AC093DF01109201013C
:1038F0001092AB01C093B301C0930301C0930E02B9
:1039000081E09091B201911180E08093B20188230F
:1039100019F082E08093B3010E94751883E591E06D
:103920000E94391883E00E94E50C892B39F110922E
:10393000A801C09300011092E9018EB58C7F8EBD65
:10394000929AC093DF01109201011092AB0183E0C3
:103950008093B3011092AA01C0930E0281E090916E
:10396000B201911180E08093B20181110093B30103
:103970000E94751882E691E00E94391884E00E9446
:10398000E50C892B09F0A6C085E00E94E50C892B87
:1039900009F083C086E00E94E50C892B09F062C023
:1039A00087E00E94E50C892BC9F5809100018130E8
:1039B00009F451C0882369F11092040118BADABBE6
:1039C0001BBA8BEB91E00E949C0DDBBB18BBC09334
:1039D00000018091A801813009F494C081E00E9427
:1039E000E50C892B09F471CF1092A801C093000156
:1039F0001092B3010E94751880910101882309F487
:103A000086C0813009F061CF86E491E00E943918C8
:103A10005CCF87EF91E00E94230DCECF1092000182
:103A20001092E9018EB58C7F8EBD929AC093DF0112
:103A3000109201011092AB01C093AA010E94751867
:103A40000E9460140E946B160E948B1480910001EA
:103A5000813009F0AFCF84EE91E00E94230D809178
:103A60000001A8CF1092A801C09300011092E901B3
:103A70008EB58C7F8EBD929AC093DF0110920101AA
:103A80001092AB01C093AA01C093A9010E947518BE
:103A900085E991E00E94391883CF1092A801C09364
:103AA00000011092E9018EB58C7F8EBD929AC09371
:103AB000DF01109201011092AB01C093AA01109294
:103AC000A9011092B0010E9475188AE891E00E9445
:103AD000391860CF1092A801C093000181E0909145
:103AE000B101911180E08093B1010E94751882E7C5
:103AF00091E00E9439180E946B168EE791E00E94B7
:103B0000391842CF0E9460140E948B1467CF8BE358
:103B100091E00E9439188091010173CFEE0FFF1FD1
:103B20000590F491E02D09944532510520F442307E
:103B300010F00C949F1DFB011082CB010895BB2750
:103B40004A3031F4992322F4BDE2909581959F4F3C
:103B50000C94AB1DBB27FB015527AA27880F991F83
:103B6000AA1FA41710F0A41B83955051B9F7A05DAC
:103B7000AA3308F0A95DA193009779F7B111B19329
:103B80001192CB010C9424200F931F93CF93DF93BA
:103B9000CDB7DEB72E970FB6F894DEBF0FBECDBF00
:103BA0000D891E8986E08C831A8309838FEF9FE736
:103BB0009E838D83AE01475E5F4F6F89788DCE0106
:103BC00001960E94F31DEF81F885E00FF11F10822E
:103BD0002E960FB6F894DEBF0FBECDBFDF91CF910A
:103BE0001F910F9108952F923F924F925F926F9283
:103BF0007F928F929F92AF92BF92CF92DF92EF927D
:103C0000FF920F931F93CF93DF93CDB7DEB72C971F
:103C10000FB6F894DEBF0FBECDBF7C016B018A01E9
:103C2000FC0117821682838181FFBDC1CE010196FE
:103C30004C01F7019381F60193FD859193FF8191EA
:103C40006F01882309F4ABC1853239F493FD859166
:103C500093FF81916F01853229F4B70190E00E94B2
:103C60003420E7CF512C312C20E02032A0F48B32CD
:103C700069F030F4803259F0833269F420612CC04D
:103C80008D3239F0803339F4216026C022602460FF
:103C900023C0286021C027FD27C030ED380F3A30FF
:103CA00078F426FF06C0FAE05F9E300D1124532EF3
:103CB00013C08AE0389E300D1124332E20620CC0D0
:103CC0008E3221F426FD6BC1206406C08C3611F4BF
:103CD000206802C0883641F4F60193FD859193FF78
:103CE00081916F018111C1CF982F9F7D95549330A1
:103CF00028F40C5F1F4FFFE3F9830DC0833631F0CA
:103D0000833771F0833509F05BC022C0F8018081F0
:103D100089830E5F1F4F44244394512C540115C0D6
:103D20003801F2E06F0E711CF801A080B18026FF0F
:103D300003C0652D70E002C06FEF7FEFC5012C87D7
:103D40000E9419202C0183012C852F77222E17C069
:103D50003801F2E06F0E711CF801A080B18026FFDF
:103D600003C0652D70E002C06FEF7FEFC5012C87A7
:103D70000E940E202C012C852068222E830123FC1A
:103D80001BC0832D90E048165906B0F4B70180E2BD
:103D900090E00E9434203A94F4CFF50127FC8591FD
:103DA00027FE81915F01B70190E00E94342031101D
:103DB0003A94F1E04F1A51084114510471F7E5C0EB
:103DC000843611F0893639F5F80127FF07C0608184
:103DD0007181828193810C5F1F4F08C06081718166
:103DE000882777FD8095982F0E5F1F4F2F76B22E74
:103DF00097FF09C090958095709561957F4F8F4F83
:103E00009F4F2068B22E2AE030E0A4010E94662075
:103E1000A82EA81844C0853729F42F7EB22E2AE098
:103E200030E025C0F22FF97FBF2E8F36C1F018F495
:103E3000883579F0B4C0803719F0883721F0AFC0E9
:103E40002F2F2061B22EB4FE0DC08B2D8460B82EB2
:103E500009C024FF0AC09F2F9660B92E06C028E033
:103E600030E005C020E130E002C020E132E0F8019E
:103E7000B7FE07C060817181828193810C5F1F4F03
:103E800006C06081718180E090E00E5F1F4FA40149
:103E90000E946620A82EA818FB2DFF77BF2EB6FE25
:103EA0000BC02B2D2E7FA51450F4B4FE0AC0B2FC1B
:103EB00008C02B2D2E7E05C07A2C2B2D03C07A2C0A
:103EC00001C0752C24FF0DC0FE01EA0DF11D80819B
:103ED000803311F4297E09C022FF06C073947394C5
:103EE00004C0822F867809F0739423FD13C020FF4D
:103EF00006C05A2C731418F4530C5718732C7314EF
:103F000068F4B70180E290E02C870E94342073941B
:103F10002C85F5CF731410F4371801C0312C24FF11
:103F200012C0B70180E390E02C870E9434202C85DA
:103F300022FF17C021FF03C088E590E002C088E798
:103F400090E0B7010CC0822F867859F021FD02C0A5
:103F500080E201C08BE227FD8DE2B70190E00E9474
:103F60003420A51438F4B70180E390E00E94342097
:103F70005A94F7CFAA94F401EA0DF11D8081B7019C
:103F800090E00E943420A110F5CF332009F451CEE7
:103F9000B70180E290E00E9434203A94F6CFF70116
:103FA0008681978102C08FEF9FEF2C960FB6F89411
:103FB000DEBF0FBECDBFDF91CF911F910F91FF905C
:103FC000EF90DF90CF90BF90AF909F908F907F90B9
:103FD0006F905F904F903F902F900895E199FECFA2
:103FE0009FBB8EBBE09A99278DB30895A8E1B0E0FE
:103FF00042E050E00C94C620262FE199FECF9FBBF3
:104000008EBB2DBB0FB6F894E29AE19A0FBE0196D3
:1040100008950E94FC1F272F0C94FD1FFC010590A2
:10402000615070400110D8F7809590958E0F9F1FBA
:104030000895FC016150704001900110D8F78095FF
:1040400090958E0F9F1F0895DC01FC01672F7191E1
:104050007723E1F7329704C07C916D93708362916E
:10406000AE17BF07C8F308950F931F93CF93DF9345
:10407000182F092FEB018B8181FD03C08FEF9FEF7C
:1040800020C082FF10C04E815F812C813D8142178C
:1040900053077CF4E881F9819F012F5F3F4F3983FB
:1040A0002883108306C0E885F985812F0995892B1F
:1040B00029F72E813F812F5F3F4F3F832E83812F32
:1040C000902FDF91CF911F910F910895FA01AA27A8
:1040D000283051F1203181F1E8946F936E7F6E5F4B
:1040E0007F4F8F4F9F4FAF4FB1E03ED0B4E03CD0F9
:1040F000670F781F891F9A1FA11D680F791F8A1FDC
:10410000911DA11D6A0F711D811D911DA11D20D042
:1041100009F468943F912AE0269F11243019305DFC
:104120003193DEF6CF010895462F4770405D4193ED
:10413000B3E00FD0C9F7F6CF462F4F70405D4A333A
:1041400018F0495D31FD4052419302D0A9F7EACF02
:10415000B4E0A6959795879577956795BA95C9F731
:1041600000976105710508959B01AC010A2E069424
:104170005795479537952795BA95C9F7620F731FDD
:10418000841F951FA01D0895DC01CB01FC01E1995E
:10419000FECF06C0FFBBEEBBE09A31960DB20D928A
:0C41A00041505040B8F70895F894FFCF4C
:1041AC000101020101A6220A23EA246225062762E4
:1041BC002557616B652075702100507265737320F3
:1041CC00533620746F20736E6F6F7A652E004C3AE5
:1041DC0020004300523A2000257300416C61726D3F
:1041EC00204D75746500416C61726D20416374697A
:1041FC0076650053657420636C6F636B2074696D16
:10420C00650053657420636C6F636B20616C617225
:10421C006D0031322F323420686F757220004D6F73
:10422C006465206368616E67650053746F7020610C
:10423C006C61726D00536E6F6F7A6520666F7220C1
:08424C003130732E2E2E00000C
:00000001FF
