:100000000C9446000C945D000C945D000C945D0013
:100010000C945D000C945D000C945D000C945D00EC
:100020000C945D000C945D000C945D000C945D00DC
:100030000C945D000C945D000C945D000C945D00CC
:100040000C945D000C945D000C945D000C945D00BC
:100050000C945D000C945D000C945D000C945D00AC
:100060000C945D000C945D000C945D000C945D009C
:100070000C945D000C945F000C945D000C945D008A
:100080000C945D000C945D000C945D0011241FBE67
:10009000CFEFD0E1DEBFCDBF11E0A0E0B1E0E4E5FD
:1000A000F1E000E00BBF02C007900D92AA32B10749
:1000B000D9F70E948E000C94A8000C9400001F92A7
:1000C0000F920FB60F9211240BB60F928F939F933E
:1000D000EF93FF93809100018F5FEDEC8E9FE12DF8
:1000E0001124E295EF7094E1E99F80191124E82F23
:1000F00080930001F0E0EE0FFF1FEF5FFE4F808165
:1001000091819BBD8ABDFF91EF919F918F910F903F
:100110000BBE0F900FBE0F901F90189580E287BB0B
:100120008FB58A6D8FBD8EB589618EBD10927A00B4
:1001300080E090EF97BD86BD10928B0082E08093A7
:100140008A0010928C0084E080937D007894FFCF29
:04015000F894FFCF51
:100154000A0001002C00420057006E0084009A003F
:10016400B100C600DC00EF00DC00C600B1009A005C
:0A01740084006E00570042002C00CA
:00000001FF
