S01000006164635F736B656C2E73726563DE
S11300000C9446000C9458000C9458000C9458001E
S11300100C9458000C9458000C9458000C945800FC
S11300200C9458000C9458000C9458000C945800EC
S11300300C9458000C9458000C9458000C945800DC
S11300400C9458000C9458000C9458000C945800CC
S11300500C9458000C9458000C9458000C945800BC
S11300600C9458000C9458000C9458000C945800AC
S11300700C9458000C9458000C9458000C9458009C
S11300800C9458000C9458000C94580011241FBE72
S1130090CFEFD0E1DEBFCDBF21E0A0E0B1E001C0F1
S11300A01D92AC35B207E1F70E945F030C94700413
S11300B00C940000E1E6F0E0808188608083E2E651
S11300C0F0E08081877F808387B3876087BBC19A94
S11300D080E58DB981E08EB9089591E0811101C068
S11300E090E09FB9779BFECF6FB9779BFECF80914D
S11300F0620088608093620080916200877F8093B1
S113010062000895CF93C09100018C0F911DFC01F2
S1130110608181E00E946D0081E08C0F809300017A
S1130120803181F0803211F0CF91089585ED8A9568
S1130130F1F7000060E880E00E946D001092000179
S1130140CF910895F5EDFA95F1F7000060EC80E0A9
S11301500E946D0080910001E5CFEF92FF921F9302
S1130160CF93DF931F92CDB7DEB7182F660F660FBC
S1130170660F605C80E099830E946D0085ED8A952E
S1130180F1F70000E12E9981F92E18E0F701619151
S11301907F0181E00E946D00F5EDFA95F1F7000012
S11301A01150A1F70F90DF91CF911F91FF90EF9025
S11301B0089590E4899F600D1124605C80E00C94A4
S11301C06D00CF93C82F8823B1F1843698F48A3018
S11301D0D8F48DECC89F812D11248695869586953B
S11301E06C2F9AE0899F60191124605D81E0CF91A2
S11301F00C946D0069E2869F612D112462956F70E5
S1130200605D81E00E946D0089E2C89F812D112408
S113021082958F706C2F94E6899F601911248DEC60
S1130220689F612D1124669566956695605D81E0F1
S11302300E946D00CECF60E381E0CF910C946D00FD
S1130240CF93C82F87FD03C0CF910C94E1006DE2DA
S113025081E00E946D0085ED8A95F1F700008C2FF6
S11302608195CF910C94E1006EE080E00C946D00D8
S11302706CE080E00C946D006EE180E00C946D0005
S113028068E180E00C946D00E2E6F0E08081886033
S113029080838081877F8083089561E080E00E946D
S11302A06D008FE19CE10197F1F700C00000089513
S11302B062E080E00E946D008FE697E10197F1F71C
S11302C000C00000089560EC80E00C946D0060E8CC
S11302D080E00C946D00CF93C0E160E281E00E9465
S11302E06D0085ED8A95F1F70000C150B1F7CF910B
S11302F00895682F81E00C946D001F93CF93DF93D2
S1130300EC0180E090E010E0FE01E80FF91F60814D
S113031081E00E946D0085ED8A95F1F700001F5F72
S1130320812F90E0FE0101900020E9F7EC1BFD0B0A
S11303303297E817F90740F7DF91CF911F9108959D
S11303408FEF99EF0197F1F700C0000088E08093E8
S1130350610060E380E00E946D008FE59DE60197F7
S1130360F1F700C0000060E380E00E946D008FE5BB
S11303709DE60197F1F700C0000060E380E00E9471
S11303806D008FE59DE60197F1F700C0000068E37A
S113039080E00E946D008FE19EE40197F1F700C0B8
S11303A0000068E080E00E946D008FE19EE4019708
S11303B0F1F700C0000061E080E00E946D008FE171
S11303C09EE40197F1F700C0000066E080E00E941F
S11303D06D008FE19EE40197F1F700C000006CE02E
S11303E080E00E946D008FE19EE40197F1F700C068
S11303F000000895AF92BF92CF92DF92EF92FF92E6
S11304000F931F93CF93DF93CDB7DEB769970FB6E2
S1130410F894DEBF0FBECDBFB42EF22E002351F0F0
S11304208B019C01002737FD0395112722273327D1
S113043097FD8CC0FF2009F481C010E09E012F5F5E
S11304403F4F690101C0122F2AE030E040E050E044
S11304500E94E603A62F2A8B3B8B4C8B5D8B6A890B
S11304607B898C899D8921E0210FF601E10FF11D23
S1130470A05DA0832F11E7CFAA24A394AF0CF601AB
S1130480EF0DF11D2EE2208301C0A12E2AE030E001
S113049040E050E00E94E603A62F2A8B3B8B4C8B56
S11304A05D8B6E8B7F8B888F998F6A897B898C8912
S11304B09D8911E01A0DF601EA0DF11DA05DA083DE
S11304C0611571058105910501F7BB2081F0E110EB
S11304D03BC090E21B1510F00AC0182F81E0810F79
S11304E0F601E10FF11D90838B11F7CF1B2D002333
S11304F031F0F601E10FF11D8DE280831F5F115091
S1130500F601E10FF11D608181E00E946D0035ED7F
S11305103A95F1F700001111F2CF69960FB6F894ED
S1130520DEBF0FBECDBFDF91CF911F910F91FF9022
S1130530EF90DF90CF90BF90AF900895A12C9E01D3
S11305402F5F3F4F6901A2CF90E3C4CF9095809570
S1130550709561957F4F8F4F9F4F6CCF9F92AF9255
S1130560BF92CF92DF92EF92FF920F931F93CF939C
S1130570DF93CDB7DEB761970FB6F894DEBF0FBE39
S1130580CDBFFC01E62E942EB22ECF2ECC1CCC2453
S1130590CC1CFC2C19F0F195E195F109992009F492
S11305A085C0D12C8E010F5F1F4F01C0D92E6AE088
S11305B070E0CF010E94D203262FE22FF72F91E0A3
S11305C09D0DD801AD0DB11D805D8C939911EECFB9
S11305D0AA24A394A90CD801A90DB11D8EE28C9371
S11305E001C0AD2C6AE070E0CF010E94D203262F37
S11305F0E22FF72FDD24D394DA0CD801AA0DB11D14
S1130600805D8C93309769F78D2DBB2051F1E110FB
S113061052C0FF2031F0F801ED0DF11D8DE2808311
S1130620D394DA94F801ED0DF11D608181E00E940C
S11306306D0085ED8A95F1F70000D110F2CF619637
S11306400FB6F894DEBF0FBECDBFDF91CF911F91DF
S11306500F91FF90EF90DF90CF90BF90AF909F905D
S11306600895CC2041F052E0D52EDA0CF801E80FC1
S1130670F11D8DE28083EE20A1F220E030E0F12C28
S113068040E28D2D90E06E2D70E0621B730B861797
S113069097070CF0BECFD394F801E80FF91F4083FD
S11306A08D2D90E086179707B4F3B3CFA12C8E015C
S11306B00F5F1F4F97CF2C2D30E040E3E2CF0E9415
S11306C05A000E94A0010E944D01809161008F7721
S11306D080936100809162008F778093620087B17C
S11306E0876487B986B1876886B9C4E6369A349B2D
S11306F0FECF349A84B195B19093020180930101A5
S11307006DEC70E00E94D2039B016093280170930A
S1130710290180932A0190932B014AE068E171E05A
S1130720C9010E943B0480912A0190912B016DEC38
S113073070E09C01C29FC001C39F900D11240E94D0
S1130740D2039B01609314017093150180931601E9
S1130750909317014AE063E071E0C9010E943B04F1
S113076088E191E00E947D018EE20E94790183E09C
S113077091E00E947D01109213013FEF80E792E027
S1130780315080409040E1F700C000008091130197
S11307908F5F809313018B3080F30E944D010E9480
S11307A05801A4CF97FB072E16F4009407D077FDC9
S11307B009D00E94050407FC05D03EF4909581956C
S11307C09F4F0895709561957F4F0895052E97FB6F
S11307D01EF400940E94FD0357FD07D00E941904E3
S11307E007FC03D04EF40C94FD03509540953095CE
S11307F021953F4F4F4F5F4F089590958095709589
S113080061957F4F8F4F9F4F0895AA1BBB1B51E1EA
S113081007C0AA1FBB1FA617B70710F0A61BB70B6C
S1130820881F991F5A95A9F780959095BC01CD0111
S11308300895A1E21A2EAA1BBB1BFD010DC0AA1F1D
S1130840BB1FEE1FFF1FA217B307E407F50720F035
S1130850A21BB30BE40BF50B661F771F881F991FB0
S11308601A9469F760957095809590959B01AC01F9
S1130870BD01CF010895BB274A3031F4992322F4F6
S1130880BDE2909581959F4F0C944704BB27FB01D3
S11308905527AA27880F991FAA1FA41710F0A41B75
S11308A083955051B9F7A05DAA3308F0A95DA193CF
S11308B0009779F7B111B1931192CB010C946004B4
S11308C0DC01FC01672F71917723E1F7329704C0B3
S11308D07C916D9370836291AE17BF07C8F308953E
S10708E0F894FFCFB6
S9030000FC
