S00C00006C6162342E73726563B5
S11300000C94D3010C94F2010C94F2010C94F201BF
S11300100C94F2010C94F2010C94F2010C94F20190
S11300200C94F2010C94F2010C94F2010C94F20180
S11300300C9409100C94F2010C94F2010C94F2014A
S11300400C9463170C94F2010C94F2010C94F201D9
S11300500C94F2010C94C0120C94F2010C94F20171
S11300600C94F2010C94F2010C94F2010C94F20140
S11300700C94F2010C94F2010C94F2010C94F20130
S11300800C94F2010C94F2010C94F201ED05F505C7
S1130090FD0505060D0616061F06DD05E5057307B5
S11300A06B076607900783078B077B0744073C07AA
S11300B037072F0798074C0722070A07B807610775
S11300C059075107D8071207C8071A07E507B007E9
S11300D0D0072A07A807A007C0070507D306CB0641
S11300E0DB06DD07BE06B606E0069906FD06C60673
S11300F0A906A106ED06B106E50691067706F50602
S113010067065F0684067C0689065A066F06420661
S113011052063D0635062D0628064A06EF080D0947
S1130120E908FB08DD08E308DD08E3081309EF0824
S11301300D09E908FB08F508D708F508D7083D09B3
S113014079093109A90931096D096709D7084309F2
S1130150D708550901099709DD088B09190991097F
S11301601F099D0961090709010949092509EF08C2
S11301700D09E908FB08DD08E308DD08E3081309B5
S1130180EF0873090709E908F508D708F508D7083F
S11301903D097F094F0913098509430919091F09F5
S11301A001090709A3092509C109E509BB09DF09F3
S11301B0630A5D0ABB09E509EB09C7096F0ABB09B4
S11301C0C109DF09BB09270ABB09D309C109030A0D
S11301D0EB09C709FD09810AD309F1098D0A3F0A10
S11301E0F109570ABB09C109DF09BB09210AC7097B
S11301F0E509BB09D309C109030AEB09C7097B0A4D
S1130200150A0F0AD909090AF709D9094B0A510A2B
S1130210450A150A0F0AD909090AF709690A750A6C
S1130220FD092D0A330A3D0F310F2B0F1F0F190F34
S11302300D0F070F010FFB0EF50EE90EE30EDD0E99
S1130240D10ECB0EBF0EB90EAD0EA70E9B0E950EA2
S11302508F0E890E830E770E710E6B0E650E5F0E78
S1130260530E4D0E410E3B0E350E2F0E230E1D0E5A
S1130270110E0B0EFF0DF90DED0DE70DDB0DD50D78
S1130280C90DC30DBD0DB70DB10DA50D9F0D990D74
S1130290930D8D0D810D7B0D6F0D690D630D5D0D3E
S11302A0510D4B0D450D3F0D390D2D0D270D1B0D1A
S11302B0150D0F0D090DFD0CF70CF10CEB0CDF0CFB
S11302C0D90CD30CCD0CC70CBB0CB50CA90CA30CCE
S11302D0970C910C850C7F0C730C6D0C670C610CE6
S11302E05B0C4F0C490C3D0C370C310C2B0C1F0CC8
S11302F0190C130C0D0C010CFB0BEF0BE90BDD0BB4
S1130300D70BCB0BC50BB90BB30BA70BA10B950BE1
S11303108F0B890B830B7D0B710B6B0B650B590BCF
S1130320530B470B410B350B2F0B230B1D0B170BDB
S1130330110B050BFF0AF30AED0AE10ADB0ACF0AE7
S1130340C90AC30ABD0AB70AAB0AA50A9F0A430F22
S11303506D0F5B0F6D0F5B0F6D0F5B0F910F5B0FDD
S1130360910F790F670FA90F670F970F850F730F01
S11303705B0F730F5B0F730F5B0F8B0F5B0F8B0F99
S1130380790F9D0FA30F5B0F670FAF0F850FD6106B
S1130390D410D210D010CE10CC10CA10C810C61071
S11303A0C410AD10D81011241FBECFEFD0E1DEBFB2
S11303B0CDBF11E0A0E0B1E0E6E7F1E300E00BBF60
S11303C002C007900D92A639B107D9F721E0A6E93A
S11303D0B1E001C01D92AE3EB207E1F70E9496174C
S11303E00C94B9180C940000E2E6F0E08081886077
S11303F080838081877F808308951FB8779BFECF99
S113040081E08FB9779BFECF8091620088608093F2
S1130410620080916200877F809362008FE891E0A0
S11304200197F1F700C000008FE39FE10197F1F716
S113043000C0000008951FB8779BFECF80E88FB9F5
S1130440779BFECF809162008860809362008091E8
S11304506200877F809362008FE891E00197F1F753
S113046000C0000008951FB8779BFECF80EC8FB9C1
S1130470779BFECF809162008860809362008091B8
S11304806200877F809362008FE891E00197F1F723
S113049000C0000008951FB8779BFECF8FE08FB98E
S11304A0779BFECF80916200886080936200809188
S11304B06200877F809362008FE891E00197F1F7F3
S11304C000C0000008951FB8779BFECF8CE08FB961
S11304D0779BFECF80916200886080936200809158
S11304E06200877F809362008FE891E00197F1F7C3
S11304F000C000000895603120F4813019F082308A
S1130500C9F0089560581FB8779BFECF6FB9779BE9
S1130510FECF8091620088608093620080916200C7
S1130520877F809362008FE891E00197F1F700C024
S1130530000008956054E7CF80E190E041E030E2AC
S11305404FB9779BFECF3FB9779BFECF20916200D6
S113055028602093620020916200277F209362002C
S1130560EFE8F1E03197F1F700C000000197009740
S113057039F70895843608F45DC09CE9980F9436E1
S113058008F45CC0885C22E391E09FB9779BFECFBE
S11305902FB9779BFECF9091620098609093620090
S11305A090916200977F90936200EFE8F1E03197B9
S11305B0F1F700C0000091E08A30C0F190E09F5F45
S11305C08A508A30E0F721E02FB9779BFECF905D07
S11305D09FB9779BFECF90916200986090936200E0
S11305E090916200977F90936200EFE8F1E0319779
S11305F0F1F700C000008823F9F0805D91E09FB915
S1130600779BFECF8FB9779BFECF80916200886085
S11306108093620080916200877F809362008FE8FC
S113062091E00197F1F700C000000895913019F7A7
S113063090E0C9CF90E0C0CF80E3E0CF892F21E3E1
S1130640A3CF803127E2920708F4BFC020E001C0A5
S1130650232F31E0320F80519742803147E29407D3
S1130660B8F731E03FB9779BFECF2F5C2FB9779B6A
S1130670FECF2091620028602093620020916200E6
S1130680277F20936200EFE8F1E03197F1F700C093
S1130690000021E0883EF3E09F0708F48EC020E0CC
S11306A02F5F885E9340883E33E09307C8F731E0BC
S11306B03FB9779BFECF205D2FB9779BFECF20916A
S11306C0620028602093620020916200277F2093BB
S11306D06200EFE8F1E03197F1F700C0000031E08B
S11306E08436910508F465C020E02F5F8456910993
S11306F084369105D0F7222309F45BC031E03FB979
S1130700779BFECF205D2FB9779BFECF20916200AF
S113071028602093620020916200277F209362006A
S1130720EFE8F1E03197F1F700C0000031E08A30E2
S11307309105D8F120E02F5F0A978A309105D8F708
S1130740222399F131E03FB9779BFECF205D2FB989
S1130750779BFECF20916200286020936200209155
S11307606200277F20936200EFE8F1E03197F1F710
S113077000C00000009759F1805D91E09FB9779B1C
S1130780FECF8FB9779BFECF809162008860809303
S1130790620080916200877F809362008FE891E01D
S11307A00197F1F700C000000895313019F720E0F7
S11307B0C9CF313041F030E0BACF213011F030E010
S11307C08FCF20E074CF20E099CF20E063CF80E387
S11307D0D4CF91E09FB9779BFECF8FB9779BFECFA3
S11307E08091620088608093620080916200877FBC
S11307F0809362008FE891E00197F1F700C0000058
S11308000895DC0120E030E090E041E04FB9779BAF
S1130810FECFFD01E20FF31F80818FB9779BFECFDE
S11308208091620088608093620080916200877F7B
S113083080936200EFE8F1E03197F1F700C0000027
S11308409F5F292F30E0FD0101900020E9F7EA1BAA
S1130850FB0B3297E217F307C8F60895E1E6F0E0E0
S113086080818860808388B388BB87B3876087BBB7
S113087080E58DB981E08EB908958091610088602A
S11308808093610088B388BB87B3876087BB80E5AA
S11308908DB981E08EB98091610088608093610098
S11308A08FE59AEE0197F1F700C000001FB8779B1F
S11308B0FECF88E38FB9779BFECF8091620088607A
S11308C08093620080916200877F809362008FE84A
S11308D091E00197F1F700C000008FE19EE40197D9
S11308E0F1F700C000001FB8779BFECF88E08FB9F6
S11308F0779BFECF80916200886080936200809134
S11309006200877F809362008FE891E00197F1F79E
S113091000C000008FE39FE10197F1F700C00000E1
S11309201FB8779BFECF86E08FB9779BFECF80916F
S1130930620088608093620080916200877F809368
S113094062008FE891E00197F1F700C000001FB842
S1130950779BFECF80E48FB9779BFECF80916200B6
S113096088608093620080916200877F8093620038
S11309708FE891E00197F1F700C0000081E08FB9A2
S1130980779BFECF8EE08FB9779BFECF809162007C
S113099088608093620080916200877F8093620008
S11309A08FE891E00197F1F700C0000081E08FB972
S11309B0779BFECF8BE18FB9779BFECF809162004E
S11309C088608093620080916200877F80936200D8
S11309D08FE891E00197F1F700C0000081E08FB942
S11309E0779BFECF81E18FB9779BFECF8091620028
S11309F088608093620080916200877F80936200A8
S1130A008FE891E00197F1F700C0000081E08FB911
S1130A10779BFECF81E18FB9779BFECF80916200F7
S1130A2088608093620080916200877F8093620077
S1130A308FE891E00197F1F700C0000081E08FB9E1
S1130A40779BFECF81E18FB9779BFECF80916200C7
S1130A5088608093620080916200877F8093620047
S1130A608FE891E00197F1F700C0000081E08FB9B1
S1130A70779BFECF81E18FB9779BFECF8091620097
S1130A8088608093620080916200877F8093620017
S1130A908FE891E00197F1F700C0000081E08FB981
S1130AA0779BFECF81E18FB9779BFECF8091620067
S1130AB088608093620080916200877F80936200E7
S1130AC08FE891E00197F1F700C0000081E08FB951
S1130AD0779BFECF8FE18FB9779BFECF8091620029
S1130AE088608093620080916200877F80936200B7
S1130AF08FE891E00197F1F700C000001FB8779BE1
S1130B00FECF81E08FB9779BFECF80916200886031
S1130B108093620080916200877F809362008FE8F7
S1130B2091E00197F1F700C000008FE19EE4019786
S1130B30F1F700C000001FB8779BFECF8CE08FB99F
S1130B40779BFECF809162008860809362008091E1
S1130B506200877F809362008FE891E00197F1F74C
S1130B6000C000000895929A1092D7011092D60105
S1130B7090E09093D4018093D3010895CF939298F9
S1130B801092D7011092D60130E03093D401209313
S1130B90D30150E04930510520F01BBC1ABCCF9161
S1130BA008954A5B5F4FFA01992787FD9095A92F15
S1130BB0B92F815491090C94B3188730910578F7B3
S1130BC0815B9F4FFC010C94B3188730910538F773
S1130BD08A5A9F4FFC010C94B31887309105F8F69C
S1130BE0835A9F4FFC010C94B31887309105B8F6D3
S1130BF08C599F4FFC010C94B3188730910578F6FB
S1130C0085599F4FFC010C94B3188730910538F631
S1130C108E589F4FFC010C94B3188730910508F04F
S1130C20BECF87589F4FFC010C94B31887309105B1
S1130C3008F0B5CF80589F4FFC010C94B31887304F
S1130C40910508F0ACCF89579F4FFC010C94B31861
S1130C5088E590E09BBD8ABDA2CF662309F40FC24C
S1130C6083E690E09BBD8ABD9ACF662309F411C246
S1130C708FE690E09BBD8ABD92CF86E790E09BBD56
S1130C808ABD8DCF662309F4FFC18AE490E09BBD41
S1130C908ABD85CF662309F401C283E590E09BBD3C
S1130CA08ABD7DCF662309F4B8C182E490E09BBD80
S1130CB08ABD75CF81EB90E09BBD8ABD70CF662362
S1130CC009F4D3C185E890E09BBD8ABD68CF662353
S1130CD009F4C1C185E990E09BBD8ABD60CF66235C
S1130CE009F4BEC187EA90E09BBD8ABD58CF84E673
S1130CF091E09BBD8ABD53CF662309F4BBC180EE4E
S1130D0090E09BBD8ABD4BCF8DEE90E09BBD8ABD2C
S1130D1046CF662309F48BC187EC90E09BBD8ABD66
S1130D203ECF662309F474C180E991E09BBD8ABD7E
S1130D3036CF662309F4CBC184E893E09BBD8ABD1A
S1130D402ECF662309F4AFC18BE291E09BBD8ABD2F
S1130D5026CF662309F4B1C182EA92E09BBD8ABD25
S1130D601ECF8CED91E09BBD8ABD19CF662309F49B
S1130D7059C187E192E09BBD8ABD11CF662309F476
S1130D80B0C188E592E09BBD8ABD09CF8AEC92E0B0
S1130D909BBD8ABD04CF662309F435C186E496E081
S1130DA09BBD8ABDFCCE662309F482C18AE097E02C
S1130DB09BBD8ABDF4CE86E995E09BBD8ABDEFCE8E
S1130DC08AEB93E09BBD8ABDEACE662309F47AC11F
S1130DD081EC91E09BBD8ABDE2CE662309F47CC11F
S1130DE08BE091E09BBD8ABDDACE662309F47EC117
S1130DF080E591E09BBD8ABDD2CE662309F4ADC1E6
S1130E0082E293E09BBD8ABDCACE86E797E09BBD94
S1130E108ABDC5CE662309F40FC18EEC92E19BBD59
S1130E208ABDBDCE662309F47AC18DE195E19BBDEF
S1130E308ABDB5CE662309F4DCC080E698E09BBD8C
S1130E408ABDADCE662309F492C180E190E09BBDDA
S1130E508ABDA5CE8EE29BE09BBD8ABDA0CE662353
S1130E6009F449C18BE190E09BBD8ABD98CE8CE129
S1130E7090E09BBD8ABD93CE662309F441C187E00F
S1130E8090E09BBD8ABD8BCE662309F4DAC08BE06B
S1130E9090E09BBD8ABD83CE82E190E09BBD8ABD7C
S1130EA07ECE662309F49BC089E199E19BBD8ABD8E
S1130EB076CE662309F429C180E39CE19BBD8ABDFB
S1130EC06ECE8CED9DE19BBD8ABD69CE8AE390E038
S1130ED09BBD8ABD64CE662309F435C180E290E0EF
S1130EE09BBD8ABD5CCE662309F432C184E290E0E6
S1130EF09BBD8ABD54CE662309F476C089E290E096
S1130F009BBD8ABD4CCE662309F478C081E390E092
S1130F109BBD8ABD44CE8BE290E09BBD8ABD3FCE93
S1130F20662309F493C087E390E09BBD8ABD37CE66
S1130F30662309F44FC088E190E09BBD8ABD2FCEA3
S1130F40662309F4F6C082EB94E09BBD8ABD27CEEC
S1130F50662309F416C18DE89AE09BBD8ABD1FCEB5
S1130F60662309F4D7C086E19EE09BBD8ABD17CEF7
S1130F70662309F4F7C080EC90E19BBD8ABD0FCED7
S1130F80662309F4D1C08FE294E09BBD8ABD07CEED
S1130F90662309F4F1C087E699E09BBD8ABDFFCDC5
S1130FA0662309F4CBC08DE89CE09BBD8ABDF7CDD8
S1130FB08DE596E19BBD8ABDF2CD662309F4E6C0BA
S1130FC086E495E09BBD8ABDEACD8DEE9EE09BBD97
S1130FD08ABDE5CD85E190E09BBD8ABDE0CD82EB85
S1130FE097E19BBD8ABDDBCD86E290E09BBD8ABDC7
S1130FF0D6CD87EE97E09BBD8ABDD1CD8EE290E041
S11310009BBD8ABDCCCD8BEE95E09BBD8ABDC7CD83
S11310108AE791E09BBD8ABDC2CD8EE390E09BBD83
S11310208ABDBDCD89EF91E09BBD8ABDB8CD8CEB67
S113103090E09BBD8ABDB3CD80EC91E19BBD8ABDA0
S1131040AECD89E090E09BBD8ABDA9CD84E390E05C
S11310509BBD8ABDA4CD8DE890E09BBD8ABD9FCD8C
S11310608EE990E09BBD8ABD9ACD8DE790E09BBD53
S11310708ABD95CD83ED90E09BBD8ABD90CD8DE575
S113108090E09BBD8ABD8BCD86E490E09BBD8ABD7C
S113109086CD89E690E09BBD8ABD81CD8EE490E04B
S11310A09BBD8ABD7CCD8BE191E09BBD8ABD77CD94
S11310B085EA96E09BBD8ABD72CD8CE792E09BBD2C
S11310C08ABD6DCD88EA91E09BBD8ABD68CD82E57D
S11310D093E09BBD8ABD63CD8CEF90E09BBD8ABD40
S11310E05ECD87E392E09BBD8ABD59CD8DE391E04F
S11310F09BBD8ABD54CD89E190E09BBD8ABD4FCD97
S113110085E090E09BBD8ABD4ACD8AE99AE19BBD0A
S11311108ABD45CD8CE49DE09BBD8ABD40CD8DEE5E
S113112093E19BBD8ABD3BCD83EF93E09BBD8ABD1C
S113113036CD8FE694E09BBD8ABD31CD88ED9BE032
S11311409BBD8ABD2CCD8EE190E09BBD8ABD27CD91
S113115082E290E09BBD8ABD22CD85EF92E09BBDEB
S11311608ABD1DCD80ED9FE09BBD8ABD18CD8DE06D
S113117090E09BBD8ABD13CD8FED98E09BBD8ABDE9
S11311800ECD86EF99E09BBD8ABD09CD8AEF94E030
S11311909BBD8ABD04CD8634910520F08FEF8093EA
S11311A0CC010895FC01E257FF4F0C94B31822E0E0
S11311B044E060E081E40C94BE0526E044E060E095
S11311C081E40C94BE0522E044E061E081E40C94E7
S11311D0BE0528E044E060E084E40C94BE0528E009
S11311E044E060E086E40C94BE0526E044E061E05F
S11311F082E40C94BE0528E044E060E083E40C94AF
S1131200BE0528E044E060E081E40C94BE0528E0DB
S113121044E060E087E40C94BE0528E044E060E02C
S113122085E40C94BE0520E144E060E081E40C9484
S1131230BE0524E045E060E083E40C94BE0524E0B0
S113124045E060E084E40C94BE05929A1092D701C4
S11312501092D60188E090E09093D4018093D3015A
S11312600895929A1092D7011092D60181E090E0ED
S11312709093D4018093D301089520E144E061E088
S113128082E40C94BE0528E044E061E082E40C941E
S1131290BE0528E144E060E087E40C94BE0520E14B
S11312A045E060E084E40C94BE05929A1092D70164
S11312B01092D60182E090E09093D4018093D30100
S11312C0089524E044E060E081E40C94BE0526E047
S11312D044E060E087E40C94BE0524E044E061E06F
S11312E087E40C94BE0528E044E061E087E40C94B4
S11312F0BE0523E044E060E087E40C94BE0520E1F1
S113130044E060E084E40C94BE0520E145E060E044
S113131083E40C94BE0522E044E061E082E40C9492
S1131320BE0524E045E061E084E40C94BE0524E0BD
S113133044E061E081E40C94BE0528E044E060E010
S113134082E40C94BE0528E144E060E086E40C9459
S1131350BE0527E044E060E087E40C94BE058F33CB
S1131360910520F08FEF8093CC010895FC01EC529D
S1131370FF4F0C94B31824E044E060E083E40C9441
S1131380BE0528E044E060E085E40C94BE05929A32
S11313901092D7011092D60181E090E09093D4018D
S11313A08093D301089528E044E060E084E40C9441
S11313B0BE0520E143E060E083E40C94BE0524E034
S11313C044E060E084E40C94BE0524E043E060E083
S11313D082E40C94BE0527E043E060E081E40C94D1
S11313E0BE0524E044E060E086E40C94BE0520E100
S11313F042E060E082E40C94BE0520E143E060E05A
S113140081E40C94BE0528E044E060E083E40C949D
S1131410BE0520E143E060E084E40C94BE0520E1D5
S113142043E060E085E40C94BE05929A1092D701E3
S11314301092D60188E090E09093D4018093D30178
S1131440089527E043E060E082E40C94BE052CE0BC
S113145043E060E082E40C94BE0520E143E061E0F7
S113146081E40C94BE05929A1092D7011092D60191
S113147080E190E09093D4018093D301089524E017
S113148044E060E087E40C94BE0528E042E060E0BC
S113149082E40C94BE0520E142E060E081E40C9417
S11314A0BE0520E142E061E081E40C94BE052CE03D
S11314B044E060E085E40C94BE0522E044E060E092
S11314C084E40C94BE0522E044E060E085E40C94DE
S11314D0BE0528E043E060E083E40C94BE0524E00C
S11314E043E060E081E40C94BE0528E043E060E062
S11314F085E40C94BE0528E043E060E081E40C94AC
S1131500BE05929A1092D7011092D60184E090E021
S11315109093D4018093D301089528E044E060E0DF
S113152081E40C94BE058539910520F08FEF8093FA
S1131530CC010895FC01ED5EFE4F0C94B31824E039
S113154043E060E087E40C94BE0522E043E060E001
S113155081E40C94BE05929A1092D7011092D601A0
S113156082E090E09093D4018093D301089522E027
S113157044E060E083E40C94BE0522E044E060E0D3
S113158085E40C94BE0524E044E060E084E40C941B
S1131590BE0522E044E060E083E40C94BE05929A28
S11315A01092D7011092D60182E090E09093D4017A
S11315B08093D301089522E044E060E083E40C9436
S11315C0BE05929A1092D7011092D60182E090E063
S11315D09093D4018093D301089522E044E060E025
S11315E083E40C94BE05929A1092D7011092D6010E
S11315F081E090E09093D4018093D301089522E098
S113160044E060E083E40C94BE05929A1092D70102
S11316101092D60180E190E09093D4018093D3019D
S1131620089522E044E060E085E40C94BE0522E0E5
S113163044E060E084E40C94BE0522E044E060E011
S113164083E40C94BE05929A1092D7011092D601AD
S113165082E090E09093D4018093D301089522E036
S113166044E060E083E40C94BE05929A1092D701A2
S11316701092D60182E090E09093D4018093D3013C
S1131680089522E044E060E083E40C94BE05929A5D
S11316901092D7011092D60181E090E09093D4018A
S11316A08093D301089522E044E060E083E40C9445
S11316B0BE05929A1092D7011092D60184E090E070
S11316C09093D4018093D301089524E043E060E033
S11316D087E40C94BE0522E043E060E081E40C94CE
S11316E0BE05929A1092D7011092D60182E090E042
S11316F09093D4018093D301089522E044E060E004
S113170083E40C94BE0522E044E060E085E40C949C
S1131710BE0524E044E060E084E40C94BE0522E0CD
S113172044E060E083E40C94BE05929A1092D701E1
S11317301092D60182E090E09093D4018093D3017B
S1131740089522E044E060E083E40C94BE05929A9C
S11317501092D7011092D60182E090E09093D401C8
S11317608093D301089522E044E060E083E40C9484
S1131770BE05929A1092D7011092D60181E090E0B2
S11317809093D4018093D301089522E044E060E073
S113179083E40C94BE05929A1092D7011092D6015C
S11317A08AE090E09093D4018093D301089524E0DB
S11317B044E060E083E40C94BE05929A1092D70151
S11317C01092D60184E090E09093D4018093D301E9
S11317D0089522E044E060E084E40C94BE05929A0B
S11317E01092D7011092D60182E090E09093D40138
S11317F08093D301089524E044E061E085E40C94EF
S1131800BE05929A1092D7011092D60184E090E01E
S11318109093D4018093D301089522E044E060E0E2
S113182084E40C94BE0522E044E060E083E40C947C
S1131830BE0522E043E060E081E40C94BE05929A88
S11318401092D7011092D60182E090E09093D401D7
S11318508093D301089522E044E060E083E40C9493
S1131860BE0522E043E060E081E40C94BE0522E082
S113187043E061E081E40C94BE05929A1092D70192
S11318801092D60182E090E09093D4018093D3012A
S1131890089522E044E060E085E40C94BE05929A49
S11318A01092D7011092D60182E090E09093D40177
S11318B08093D301089522E044E061E085E40C9430
S11318C0BE0522E044E060E086E40C94BE0522E01C
S11318D044E061E087E40C94BE0522E044E060E06B
S11318E087E40C94BE05929A1092D7011092D60107
S11318F088E090E09093D4018093D301089524E08C
S113190044E060E087E40C94BE05929A1092D701FB
S11319101092D60181E090E09093D4018093D3019A
S1131920089521E044E060E087E40C94BE05929AB7
S11319301092D7011092D60182E090E09093D401E6
S11319408093D301089522E044E060E087E40C949E
S1131950BE05929A1092D7011092D60182E090E0CF
S11319609093D4018093D301089522E043E060E092
S113197085E40C94BE05929A1092D7011092D60178
S113198082E090E09093D4018093D301089522E003
S113199043E061E085E40C94BE0522E043E060E0AE
S11319A086E40C94BE0522E043E061E087E40C94F5
S11319B0BE0522E043E060E087E40C94BE05929A01
S11319C01092D7011092D60184E090E09093D40154
S11319D08093D301089522E044E060E084E40C9411
S11319E0BE0522E044E060E083E40C94BE0522E0FE
S11319F043E060E081E40C94BE05929A1092D70112
S1131A001092D60182E090E09093D4018093D301A8
S1131A10089522E044E060E083E40C94BE0522E0F3
S1131A2043E060E081E40C94BE0522E043E061E021
S1131A3081E40C94BE05929A1092D7011092D601BB
S1131A4082E090E09093D4018093D301089522E042
S1131A5044E060E085E40C94BE05929A1092D701AC
S1131A601092D60182E090E09093D4018093D30148
S1131A70089522E044E061E085E40C94BE0522E090
S1131A8044E060E086E40C94BE0522E044E061E0BA
S1131A9087E40C94BE0522E044E060E087E40C9403
S1131AA0BE05929A1092D7011092D60188E090E078
S1131AB09093D4018093D301089522E043E060E041
S1131AC082E40C94BE0522E044E060E084E40C94DB
S1131AD0BE0522E044E060E083E40C94BE05929AE3
S1131AE01092D7011092D60182E090E09093D40135
S1131AF08093D301089522E044E060E085E40C94EF
S1131B00BE05929A1092D7011092D60182E090E01D
S1131B109093D4018093D301089522E044E060E0DF
S1131B2087E40C94BE0522E044E060E086E40C9473
S1131B30BE0524E044E060E081E40C94BE0522E0AC
S1131B4044E060E087E40C94BE05929A1092D701B9
S1131B501092D60181E090E09093D4018093D30158
S1131B60089522E044E060E085E40C94BE0523E09F
S1131B7043E060E087E40C94BE0524E043E060E0C9
S1131B8081E40C94BE0522E043E061E082E40C941D
S1131B90BE05929A1092D7011092D60182E090E08D
S1131BA09093D4018093D301089522E043E060E050
S1131BB082E40C94BE05929A1092D7011092D60139
S1131BC082E090E09093D4018093D301089522E0C1
S1131BD043E060E081E40C94BE05929A1092D70130
S1131BE01092D60182E090E09093D4018093D301C7
S1131BF0089524E043E060E085E40C94BE05929AE5
S1131C001092D7011092D60183E090E09093D40112
S1131C108093D301089522E043E060E087E40C94CC
S1131C20BE05929A1092D7011092D60182E090E0FC
S1131C309093D4018093D301089525E044E060E0BB
S1131C4083E40C94BE05929A1092D7011092D601A7
S1131C5084E090E09093D4018093D301089522E02E
S1131C6043E060E082E40C94BE0522E044E060E0DE
S1131C7084E40C94BE0522E044E060E083E40C9428
S1131C80BE05929A1092D7011092D60182E090E09C
S1131C909093D4018093D301089522E044E060E05E
S1131CA085E40C94BE05929A1092D7011092D60145
S1131CB082E090E09093D4018093D301089522E0D0
S1131CC044E060E087E40C94BE0522E044E060E078
S1131CD086E40C94BE0524E044E060E081E40C94C6
S1131CE0BE0522E044E060E087E40C94BE05929ACD
S1131CF01092D7011092D60181E090E09093D40124
S1131D008093D301089522E044E060E085E40C94DC
S1131D10BE0523E043E060E087E40C94BE0524E0C4
S1131D2043E060E081E40C94BE0522E043E061E01E
S1131D3082E40C94BE05929A1092D7011092D601B7
S1131D4082E090E09093D4018093D301089522E03F
S1131D5043E060E082E40C94BE05929A1092D701AD
S1131D601092D60182E090E09093D4018093D30145
S1131D70089522E043E060E081E40C94BE05929A69
S1131D801092D7011092D60182E090E09093D40192
S1131D908093D301089524E043E060E085E40C944B
S1131DA0BE05929A1092D7011092D60184E090E079
S1131DB09093D4018093D301089522E043E060E03E
S1131DC087E40C94BE0525E044E060E083E40C94D1
S1131DD0BE05929A1092D7011092D60188E090E045
S1131DE09093D4018093D301089528E042E060E009
S1131DF087E40C94BE0528E044E060E087E40C949A
S1131E00BE0524E044E060E085E40C94BE0522E0D5
S1131E1044E060E083E40C94BE05929A1092D701EA
S1131E201092D60182E090E09093D4018093D30184
S1131E30089522E044E060E085E40C94BE05929AA3
S1131E401092D7011092D60181E090E09093D401D2
S1131E508093D301089523E044E060E085E40C948A
S1131E60BE05929A1092D7011092D60181E090E0BB
S1131E709093D4018093D301089521E044E060E07D
S1131E8085E40C94BE05929A1092D7011092D60163
S1131E9088E090E09093D4018093D30108958F312A
S1131EA0910520F08FEF8093CC010895FC01E85553
S1131EB0FE4F0C94B318929A1092D7011092D60147
S1131EC081E090E09093D4018093D301089524E0BD
S1131ED045E060E085E40C94BE0527E044E060E062
S1131EE085E40C94BE0527E044E061E085E40C94AD
S1131EF0BE05929A1092D7011092D60185E090E027
S1131F009093D4018093D301089528E045E060E0E4
S1131F1085E40C94BE0523E044E061E085E40C9480
S1131F20BE0523E044E060E085E40C94BE0528E0AF
S1131F3045E060E087E40C94BE0524E045E061E000
S1131F4085E40C94BE0523E045E060E085E40C9450
S1131F50BE0524E045E061E087E40C94BE0528E07A
S1131F6045E061E087E40C94BE05813089F060F0BF
S1131F70823031F0833041F4862F90E00C944F0F7F
S1131F80862F90E00C94930A862F90E00C94CB0853
S1131F90862F90E00C94AF091092CC018EB58C7F03
S1131FA08EBD929A81E08093C50108951092CC0170
S1131FB08EB583608EBD92986091CC018091D001E2
S1131FC00E94B50F1092C501089587B7806187BF3D
S1131FD01FBC8EB588608EBD10927A0081E390E0BC
S1131FE09BBD8ABD1092CC018EB58C7F8EBD929A1A
S1131FF081E08093C5011092D7011092D60110920E
S1132000D4011092D3011092CC0182E08093D001CC
S113201008951F920F920FB60F9211240BB60F92D0
S11320202F933F934F935F936F937F938F939F93DC
S1132030AF93BF93EF93FF9382B3805882BB2091F9
S1132040D6013091D7018091D3019091D401281702
S1132050390758F08091CC018F5F8093CC01609157
S1132060CC018091D0010E94B50FFF91EF91BF91F7
S1132070AF919F918F917F916F915F914F913F911C
S11320802F910F900BBE0F900FBE0F901F901895BD
S1132090E82FF0E0C8991DC089B3EE0FFF1FED547F
S11320A0FE4F8095282F217030E0306E8081918121
S11320B0880F991F282B392B3183208381E090E0EE
S11320C02091B3013091B4012115304F09F080E023
S11320D0089549B3EE0FFF1FED54FE4F2081318167
S11320E0220F331F306E50E002C0559547958A95F4
S11320F0E2F741705527242B352B3183208381E06F
S113210090E02115304F21F380E0E2CFAF92BF92EF
S1132110CF92DF92EF92FF920F931F93CF93DF93AF
S1132120E7ECAE2EE1E0BE2EC8EAD1E02FEFF4E0FA
S1132130CF2EA0E9DA2EB0E8EB2E18EFF12E02E84C
S113214012E979E960EB54EA49EF30ECF501819149
S11321505F0190E08C30910590F028832196FCEC8F
S1132160AF16F1E0BF0691F7DF91CF911F910F9168
S1132170FF90EF90DF90CF90BF90AF900895895378
S11321809E4FFC010C94B318D882E8CFE882E6CFC6
S1132190F882E4CF0883E2CF1883E0CF7883DECFE0
S11321A06883DCCF5883DACF4883D8CF3883D6CF3F
S11321B0C882D4CF21E030E060E250E340E1C901BD
S11321C001978230910539F1833091058CF0833089
S11321D09105D1F1049751F580E488BB8091AC015D
S11321E08BBB8FE39FE10197F1F700C000000895D6
S11321F00197E1F448BB8091A9018BBB8FE39FE178
S11322000197F1F700C000002F5F3F4FC90101970C
S113221082309105C9F668BB8091AA018BBB8FE31C
S11322209FE10197F1F700C00000EECF18BA80914A
S1132230A8018BBB8FE39FE10197F1F700C0000079
S11322402530310509F7089558BB8091AB018BBB4C
S11322508FE39FE10197F1F700C00000D5CF8DB166
S113226080658DB9709A089580B7886080BF87B7FC
S1132270816087BF83B7816083BF0895BF9A85B5A6
S113228015BC85B5886785BD85B5816085BD13BCE2
S11322900895139A1B9AEBE8F0E08081826C8083A6
S11322A0EAE8F0E080818961808310928C008FEFEE
S11322B09FE090938100809380000895E1E6F0E030
S11322C080818E7F8083E2E6F0E080818E7F808350
S11322D087B1806687B986B1886E86B986B1876012
S11322E086B9089513B81F9A982F9C7029F1892FE5
S11322F090E09595879595958795382F2091EB01DA
S11323002130D1F108F4B2C0223009F495C0233051
S113231009F046C02091EC01213009F4FBC02230C1
S113232009F4CEC023E02093EC013323B1F1313022
S1132330C1F13230B1F1089583709091E901913087
S113234009F451C088F1923009F461C0933009F066
S11323505AC09091ED01913009F4C5C0923009F44E
S1132360A8C093E09093ED01882309F449C081301B
S113237059F1823049F12AC04091EC01442309F417
S11323808DC0433029F4209302012FEF2093C6011E
S113239021E02093EC01311175C01092EB010895F6
S11323A083E08093EB0108959091ED01923009F45C
S11323B094C0913009F477C01092ED01813021F07E
S11323C0823011F0833011F48093E901833009F0F5
S11323D0B2CF8091A0018111AECF8091A701806816
S11323E08093A70108952091ED0121114EC090938F
S11323F002019093C60191E09093ED018111E0CF29
S11324001092E901E3CF93E09093E901DFCF90913B
S1132410ED01933009F46CC0911106C091E09093E2
S113242002019FEF9093C60192E09093ED018823FF
S113243039F3813049F2C6CF2091EC01233009F4FD
S11324405DC0211106C021E0209302012FEF2093EB
S1132450C60122E02093EC01332309F49ECF3130EE
S113246009F49FCF333009F49CCF65CF2091EC0160
S1132470223009F449C0213051F11092EC0131307D
S113248009F48FCF323071F78CCF233009F0B3CFFA
S1132490909302019FEF9093C601ADCF2093020168
S11324A02093C60175CF909302019FEF9093C601CC
S11324B083CF91E0909302019FEF9093C60151CF97
S11324C021E0209302012FEF2093C6012BCF20930C
S11324D002012FEF2093C601D0CF91E09093020127
S11324E09093C60169CF909302019093C60139CFAE
S11324F091E0909302019093C60196CF21E020933E
S113250002012093C601A5CF21E02093020120936C
S1132510C601B3CF209302012093C60103CF1F92BB
S11325200F920FB60F9211242F933F938F939F9383
S11325302091C60184E12802900111243093CF0137
S11325402093CE0180E09FE0821B930B9093870041
S11325508093860080918600909187008C32914010
S113256060F081E08093D1019F918F913F912F91F1
S11325700F900FBE0F901F9018951092D101F4CFB9
S11325801F920F920FB60F9211248F939F9385B1D0
S1132590803110F49EE193BD90EF980F903110F4C8
S11325A098E293BD91EE980F903110F492E393BDAD
S11325B091ED980F903110F49CE393BD91EC980F3A
S11325C0903110F496E493BD91EB980F903110F490
S11325D090E593BD91EA980F903110F49AE593BD7C
S11325E092E9980F903110F494E693BD92E8980F15
S11325F0903110F49EE693BD92E7980F903110F459
S113260098E793BD92E6980F903110F492E893BD49
S113261092E5980F903110F49CE893BD92E4980FE2
S1132620903110F496E993BD92E3980F903110F431
S113263090EA93BD92E2980F903110F49AEA93BD18
S11326408E5E803110F484EB83BD9F918F910F9047
S11326500FBE0F901F90189580919801882389F0E0
S11326608091D2018F5F8093D201877049F4809169
S1132670D6019091D70101969093D7018093D6010A
S113268008950E94D60F81E08093980110929701DB
S1132690089580919A0181111BC080919901811143
S11326A019C08091A7019091A30184FD3AC0809143
S11326B09C01981709F445C01092CC018EB58C7F0B
S11326C08EBD929A81E08093C5011092980108957D
S11326D0813029F0809196018130E1F00895809154
S11326E099018111F7CF2091A4018091A7012C3089
S11326F099F185FF4CC09091A30180919C0198139E
S1132700DBCF30E080919B0190E00C9628173907CD
S113271099F605C08091D0018F5F8093D0010C940D
S11327202C1380919C019813C7CF2091A40130E011
S113273080919B0190E00C972817390709F0BCCFD2
S1132740EECF9091A40180919B019813B5CF809115
S113275097018111B1CFE3CF85FF0BC09091A30105
S113276080919C019813A8CF80919B018111A4CFE3
S1132770D6CF84FFB3CF9091A30180919C0198138D
S11327809BCF80919B018C3009F096CFC8CF0895E0
S11327908F7789F491E08091D501811138C09093AD
S11327A0D5018091A2018F5F8093A20191112BC06A
S11327B08AE08093C9018091E801811115C080915C
S11327C0A2018C3309F467C00E94491380919E01D1
S11327D0813009F44CC0811105C08091C30181305E
S11327E009F48CC08091E8018130A1F0809100014E
S11327F08130B1F168F1823061F48091A7018F7862
S11328008093A70108958BE08093C901D4CF90E011
S1132810C6CF08959091A001913009F481C09230FF
S113282009F450C0933009F45EC09430F9F68091F5
S1132830C301813009F4DEC080919B01883108F422
S1132840A8C0883109F432C187E180939B01CECFBF
S11328509091A701892F8F7880628093A7010895B2
S11328608091A7018F7880618093A701089590914A
S1132870A4019C3008F45FC09C3009F081C09091A1
S11328809A01913011F08093000181E08093C3019B
S11328908091E801A9CF8091A3018F5F8093A30168
S11328A01092A2018C3309F08FCF8091A4018F5F25
S11328B08093A4011092A301883109F085CF10926E
S11328C0A40182CF9091C301913009F476C0809124
S11328D0A401883108F467C0883109F4EAC087E1AB
S11328E08093A40183CF80919C018C33B8F18C3305
S11328F009F4A6C0845C80939C0178CF8091A401E4
S11329008C3009F493C09091A70194FF03C0845FB5
S11329108093A4011092C30182E08093000162CFEE
S11329208091A3018C3380F08C3309F4B7C0845CAC
S11329308093A3015BCF9923D9F09091A70194FDD3
S1132940A4CF10920001A1CF2091C6019091020161
S1132950299F800D11248093A30148CF2091C601A3
S113296090910201299F800D112480939C013ECFF8
S11329709CE09093A40180939A011092000185CF6A
S1132980983109F48EC09C509093A4018093000167
S11329907CCF2091C60190910201299F800D1124C2
S11329A080939B0123CF2091C60190910201299F1E
S11329B0800D11248093A40119CF9091A70195FF54
S11329C058C09091A4012FEF290F2C3008F074C047
S11329D09C3009F49AC02091C60180910201289F7D
S11329E0900D11249093A4019C30E9F081E0809330
S11329F09901FCCE9091A70195FF25C020919B01E0
S1132A003FEF320F3C3008F05DC02C3009F4AAC00F
S1132A109091C60180910201989F200D112420936A
S1132A209B012C3019F710929901E0CE80919A0104
S1132A30813009F06FCF1092A40110929A016ACFED
S1132A4010929C01D3CE80919B012FEF280F2C3044
S1132A5008F03EC08C3009F441C02091C601909129
S1132A600201299F800D112480939B018C30D9F69B
S1132A70BDCF8091A4019FEF980F9C3060F58C30FE
S1132A8009F45AC02091C60190910201299F800D3A
S1132A9011248093A4018C3031F6A8CF1092A301A5
S1132AA0A5CE1092A40110920001EFCE10929B01CA
S1132AB09DCE1092A4019ACE911198CE8CE0809371
S1132AC0A40194CE211192CE8CE080939B018ECEF2
S1132AD08823D1F38BCE882389F388CE8091990102
S1132AE0813081F02091C60180910201289F802DC0
S1132AF01124845F80939B018D3009F44AC08B308C
S1132B0009F074CE10920001A5CE909199019923F9
S1132B1081F09091C60180910201989F802D11242B
S1132B20845F8093A4018D30C1F18B3009F05ECEB7
S1132B3081E0809300015ACE80919901813079F02F
S1132B409091C60180910201989F802D1124845F89
S1132B508093A4018D3009F18B3009F047CE109297
S1132B60000144CE20919901222379F03091C601CD
S1132B7020910201329F202D1124245F20939B0178
S1132B802D3039F02B3009F031CE80930001892F9C
S1132B9069CE81E080939B0129CE81E08093A401DA
S1132BA025CE1092CC018EB58C7F8EBD929A81E099
S1132BB08093C5011092980108958F7759F48091FC
S1132BC09D018F5F80939D018B3020F08B3019F035
S1132BD00C942C1308950E942C130E943D0483E04E
S1132BE091E00E9401040E9433028CE091E00C9475
S1132BF001048823B1F08091A0018111A2C08091C9
S1132C0001018F5F809301011092E8018091A70177
S1132C10807781608093A70180919601813009F4C7
S1132C20B1C0809101010E94C8138091A00182303B
S1132C3009F4B0C008F04FC0882309F4F4C081300F
S1132C4009F09FC08091C4018F7349F581E0909190
S1132C50CD01911180E08093CD019AE09093C7015A
S1132C609093C80181111BC02091A3019DEC299F61
S1132C70812D11248695869586953AE0839F2019A7
S1132C8011242093C701899F912D1124969596951F
S1132C9096952AE0929F801911248093C80120916F
S1132CA0A4019DEC299F812D1124869586958695F6
S1132CB03AE0839F201911242093CA01899F912D02
S1132CC011249695969596952AE0929F8019112441
S1132CD08093CB010895833009F4C3C0843009F094
S1132CE04FC0809101018F7349F581E09091EA0111
S1132CF0911180E08093EA019AE09093C701909348
S1132D00C80181111BC020919C019DEC299F812D3C
S1132D1011248695869586953AE0839F201911247F
S1132D202093C701899F912D112496959695969588
S1132D302AE0929F801911248093C80120919B015D
S1132D40B0CF9FEF980F923058F49091C4019F5FD9
S1132D509093C4019091A701907792609093A701FA
S1132D608350823008F058CF809101018F5F8093A7
S1132D7001018091A701807784608093A7014CCFE3
S1132D80089508958091C4018F5F8093C4010E94C7
S1132D90DD1547CF8091C4018F7349F581E090918F
S1132DA0CD01911180E08093CD019AE09093CA0106
S1132DB09093CB0181111BC02091A4019DEC299F0C
S1132DC0812D11248695869586953AE0839F201956
S1132DD011242093CA01899F912D112496959695CB
S1132DE096952AE0929F801911248093CB0120911B
S1132DF0A3019DEC299F812D1124869586958695A6
S1132E003AE0839F201911242093C701899F912DB3
S1132E1011249695969596952AE0929F80191124EF
S1132E208093C80108952091A3019DEC299F812DD1
S1132E3011248695869586953AE0839F201911245E
S1132E402093C701899F212D112426952695269527
S1132E503AE0239F801911248093C8012091A40192
S1132E6021CF809101018F7349F581E09091EA01AE
S1132E70911127C08093EA019AE09093CA0190933C
S1132E80CB0181111BC020919B019DEC299F812DB9
S1132E9011248695869586953AE0839F20191124FE
S1132EA02093CA01899F912D112496959695969504
S1132EB02AE0929F801911248093CB0120919C01D8
S1132EC098CF80E0D7CF1F920F920FB60F921124A4
S1132ED00BB60F922F933F934F935F936F937F9310
S1132EE08F939F93AF93BF93EF93FF9381E00E94DF
S1132EF0F9158FB10E9472118091A7018FB9779B48
S1132F00FECFC09AC098FF91EF91BF91AF919F916E
S1132F108F917F916F915F914F913F912F910F907E
S1132F200BBE0F900FBE0F901F9018958FEF87BBAD
S1132F3092B182B91ABA0E94E50F8DB180658DB93C
S1132F40709A0E945E1180B7886080BF87B78160E5
S1132F5087BF83B7816083BFBF9A85B515BC85B52C
S1132F60886785BD85B5816085BD13BC0E94491104
S1132F7078940E943D0480E291E00E9401040E9442
S1132F8033028091D101882309F4E6C0813009F429
S1132F90DEC0CFEF10E704E0DCE56BC082E00E9406
S1132FA04810892B11F11092CC018EB58C7F8EBD07
S1132FB0929A81E08093C501109298018093A001B8
S1132FC0809301018093E80190919F01911180E029
S1132FD080939F01882319F082E08093A0010E94CE
S1132FE03D0482E491E00E94010483E00E944810C1
S1132FF0892B09F11092CC018EB58C7F8EBD929AEB
S113300081E08093C5011092980193E09093A00110
S1133010109297018093E80190919F01911180E0B3
S113302080939F0181110093A0010E943D0481E5DA
S113303091E00E94010484E00E944810892B09F069
S11330406BC085E00E944810892B09F04DC086E0D2
S11330500E944810892B91F587EC91E00E9486101C
S113306010920201D8BBCABB1BBA88EA91E00E9445
S1133070DA108FED9EE20197F1F700C00000CBBBA0
S113308018BB81E00E944810892B09F487CF109265
S1133090A0010E943D0480E291E00E9401040E948C
S11330A033028091D101882309F44AC0813009F0A8
S11330B075CF86E391E00E94010470CF1092CC0199
S11330C08EB58C7F8EBD929A81E08093C50110925B
S11330D0980180939701809396010E943D0484E8AF
S11330E091E00E940104B8CF1092CC018EB58C7F80
S11330F08EBD929A81E08093C501109298018093CD
S113310097011092960110929D010E943D0489E757
S113311091E00E9401049BCF81E090919E01911166
S113312080E080939E010E943D0481E691E00E942C
S113313001040E9433028DE691E00E94010481CFD4
S11331408CE291E00E9401048091D101AFCF86E32B
S113315091E00E9401041DCF8CE291E00E940104E1
S11331608091D10113CFEE0FFF1F0590F491E02D54
S10931700994F894FFCF5E
S113317602010157616B65207570210050726573F9
S11331867320533620746F20736E6F6F7A652E002A
S1133196416C61726D20436C6F636B004D75746591
S11331A6206D6F646500416374697665206D6F6494
S11331B6650053657420636C6F636B2074696D6579
S11331C60053657420636C6F636B20616C61726D70
S11331D60031322F323420686F757220004D6F64CF
S11331E665206368616E67650053746F7020616C57
S11331F661726D00536E6F6F7A6520666F7220314F
S109320630732E2E2E0091
S9030000FC
