S0140000746865726D6F335F736B656C2E7372656340
S11300000C9497000C94A9000C94A9000C94A900DA
S11300100C94A9000C94A9000C94A9000C94A900B8
S11300200C94A9000C94A9000C94A9000C94A900A8
S11300300C94A9000C94A9000C94A9000C94A90098
S11300400C94A9000C94A9000C94A9000C94A90088
S11300500C94A9000C94A9000C94A9000C94A90078
S11300600C94A9000C94A9000C94A9000C94A90068
S11300700C94A9000C94A9000C94A9000C94A90058
S11300800C94A9000C9410020C94A90050022702AD
S113009027022702270227022702270250022702EB
S11300A02702270227022702270227025A022702D1
S11300B027022702270227022702270227022702F4
S11300C02702270227022702270227025A022702B1
S11300D027022702270227022702270227022702D4
S11300E0270227022702270227022702710227027A
S11300F02702270227022702270227027502270266
S113010027022702270227022702270227022702A3
S11301102702270227022702270227028302270237
S1130120270227022702270227022702410211245D
S11301301FBECFEFD0E1DEBFCDBF21E0A0E0B1E034
S113014001C01D92AB32B207E1F70E94CD020C94BC
S11301504C030C94000087B3876087BB80E58DB99E
S113016081E08EB90895E2E6F0E0808188608083C2
S11301708081877F808308951FB8779BFECF81E0BD
S11301808FB9779BFECF8091620088608093620074
S113019080916200877F809362008FE39FE10197E3
S11301A0F1F700C0000008951FB8779BFECF82E0EE
S11301B08FB9779BFECF8091620088608093620044
S11301C080916200877F8093620008951FB8779BB7
S11301D0FECF80EC8FB9779BFECF80916200886060
S11301E08093620080916200877F8093620008950B
S11301F080E190E041E030E24FB9779BFECF3FB918
S1130200779BFECF209162002860209362002091AA
S11302106200277F20936200EFE9FFE03197F1F756
S113022000C000000197009739F7089591E09FB945
S1130230779BFECF8FB9779BFECF80916200886059
S11302408093620080916200877F809362008FE9CF
S11302509FE00197F1F700C0000008951FB8779B55
S1130260FECF8CE08FB9779BFECF809162008860CF
S11302708093620080916200877F809362008FE99F
S11302809FE00197F1F700C000000895DC0180E0D1
S113029090E020E030E041E04FB9779BFECFFD01D4
S11302A0E80FF91F80818FB9779BFECF80916200A0
S11302B088608093620080916200877F80936200EF
S11302C08FE891E00197F1F700C000002F5F3F4FE6
S11302D0C901FD0101900020E9F7EA1BFB0B3297ED
S11302E0E217F307C8F6089580916100886080934F
S11302F061008FE59AEE0197F1F700C0000083E0FA
S113030090E030E31FB8779BFECF3FB9779BFECFD9
S11303102091620028602093620020916200277F70
S113032020936200EFE5FDE63197F1F700C000008D
S11303300197009739F71FB8779BFECF88E38FB9F1
S1130340779BFECF809162008860809362008091E9
S11303506200877F809362008FE19EE40197F1F74A
S113036000C000001FB8779BFECF88E08FB9779B51
S1130370FECF809162008860809362008091620069
S1130380877F80936200EFE1FEE43197F1F700C0CC
S113039000001FB8779BFECF81E08FB9779BFECF1B
S11303A08091620088608093620080916200877F00
S11303B0809362008FE19EE40197F1F700C0000092
S11303C01FB8779BFECF86E08FB9779BFECF8091D5
S11303D0620088608093620080916200877F8093CE
S11303E06200EFE1FEE43197F1F700C000001FB8AE
S11303F0779BFECF8EE08FB9779BFECF8091620012
S113040088608093620080916200877F809362009D
S11304108FE19EE40197F1F700C00000089508956C
S11304201F920F920FB60F9211240BB60F922F93B7
S11304303F938F939F93AF93BF93EF93FF938091D9
S1130440710090E0FC013897E135F105B0F080913E
S113045071008093260184E080937400FF91EF91F2
S1130460BF91AF919F918F913F912F910F900BBEB0
S11304700F900FBE0F901F901895EA5BFF4F0C94DE
S1130480110380910001E0912701F0912801E80F08
S1130490F11D80917300808384E980937400DECF22
S11304A080912901809373001092000185E8809364
S11304B07400D4CF8091000190912A01891760F7CC
S11304C0E0912701F091280191E0980F90930001A9
S11304D0E80FF11D80818093730085E88093740098
S11304E0BDCF85EA80937400B9CF2091000180913B
S11304F02A0130E090E0019728173907DCF485ECF5
S113050080937400ABCFE0912701F0912801809192
S1130510000121E0280F20930001E80FF11D8091D4
S11305207300808380912A0130E090E001972817BE
S113053039072CF385E88093740090CF8091740080
S1130540817008959091740090FDFCCF8E7F80930C
S11305502901709328016093270140932A0185EAB9
S11305608093740008959091740090FDFCCF816095
S113057080932901709328016093270140932A01F5
S113058085EA8093740008958FEF8093730010922E
S113059071008CE080937000089587B3876087BBF7
S11305A080E58DB981E08EB90E9474010E94C40275
S11305B01092220142E062E271E080E90E94A2020C
S11305C078940E94BC002FEF81EE94E0215080408B
S11305D09040E1F700C000000E94BC0042E064E2E9
S11305E071E080E90E94B3028FE39FE10197F1F784
S11305F000C000008091240190E0982F882720916A
S11306002501822B4AE061E071E0880F892F881F61
S1130610990B91950E94170381E091E00E94460195
S1130620D2CFEE0FFF1F0590F491E02D0994BB2764
S11306304A3031F4992322F4BDE2909581959F4F7D
S11306400C942303BB27FB015527AA27880F991F66
S1130650AA1FA41710F0A41B83955051B9F7A05DED
S1130660AA3308F0A95DA193009779F7B111B1936A
S11306701192CB010C943C03DC01FC01672F7191B6
S11306807723E1F7329704C07C916D937083629174
S10F0690AE17BF07C8F30895F894FFCF1D
S9030000FC
