S00E00006D65676134382E7372656310
S11300006AC079C078C077C076C075C074C073C048
S113001072C071C070C06FC06EC06DC06CC06BC068
S11300206AC069C068C067C066C065C064C063C098
S113003063C061C09CC075C074C073C072C071C01D
S113004070C06FC094C06DC06CC06BC06AC069C022
S113005068C067C096C065C064C063C062C061C048
S113006060C05FC05EC05DC05CC05BC05AC059C0A8
S113007058C057C086C055C054C053C052C051C0A8
S113008050C04FC04EC04DC04CC04BC04AC049C008
S113009048C047C08DC045C044C043C042C041C0F1
S11300A040C03FC089C03DC03CC03BC03AC039C01D
S11300B038C037C036C035C034C033C032C031C098
S11300C030C02FC087C02DC02CC02BC02AC029C06F
S11300D028C027C03DC011241FBECFEFD2E0DEBF31
S11300E0CDBF21E0A0E0B1E001C01D92A332B20770
S11300F0E1F750D1AFC184CF1F920F920FB60F9288
S113010011242F933F938F939F93AF93BF93EF93B8
S1130110FF938091B90090E0FC013897E135F10537
S1130120A0F08091B9008093030184E08093BC0027
S1130130FF91EF91BF91AF919F918F913F912F913B
S11301400F900FBE0F901F901895E65EFF4F099415
S113015080910101E0910401F0910501E80FF11D86
S11301608091BB00808384E98093BC00E1CF8091BF
S11301700A018093BB001092010185E88093BC00C2
S1130180D7CF8091010190910F01891760F7E09119
S11301900401F091050191E0980F90930101E80F9B
S11301A0F11D80818093BB0085E88093BC00C0CFA3
S11301B085EA8093BC00BCCF2091010180910F019E
S11301C030E090E0019728173907DCF485EC809340
S11301D0BC00AECFE0910401F091050180910101D2
S11301E021E0280F20930101E80FF11D8091BB004D
S11301F0808380910F0130E090E001972817390740
S11302002CF385E88093BC0093CF8091BC0081706F
S113021008959091BC0090FDFCCF8E7F80930A01DD
S1130220709305016093040140930F0185EA809364
S1130230BC0008959091BC0090FDFCCF8160809338
S11302400A01709305016093040140930F0185EA4C
S11302508093BC0008958FEF8093BB001092B90087
S11302608CE08093B80008959093C5008093C400F7
S113027088E18093C10086E08093C2000895909144
S1130280C00095FFFCCF8093C60008958091C00004
S1130290807808958091C00087FFFCCF8091C600CC
S11302A00895FC012081222351F031968091C000F1
S11302B085FFFCCF2093C60021912111F7CF08952B
S11302C084E08093060180E6809307018091BC005E
S11302D080FDFCCF80E980930A0186E091E0909351
S11302E005018093040182E080930F0185EA8093E5
S11302F0BC000895109206018091BC0080FDFCCFE3
S113030080E980930A0186E091E09093050180934F
S1130310040181E080930F0185EA8093BC00089575
S113032080E0089584B1876084B98CB580658CBD04
S11303308DB581608DBD08958091BC0080FDFCCF9A
S113034081E980930A0180E291E090930501809312
S1130350040182E080930F0185EA8093BC008FE959
S11303609FE00197F1F700C000008091200190E028
S1130370982F882720912101822B880F892F881F8D
S1130380990B919590930901809308014AE060E1EB
S113039071E02DC080E895E29093C5008093C4007D
S11303A088E18093C10086E08093C20084B18760B5
S11303B084B98CB580658CBD8DB581608DBD789414
S11303C0BBDF90911001992359F0E1E1F1E08091B4
S11303D0C00085FFFCCF9093C60091919111F7CF97
S11303E08091C00085FFFCCF1092C600E9CFBB27E7
S11303F04A3031F4992322F4BDE2909581959F4FC0
S113040001C0BB27FB015527AA27880F991FAA1FE4
S1130410A41710F0A41B83955051B9F7A05DAA331B
S113042008F0A95DA193009779F7B111B1931192E6
S1130430CB0100C0DC01FC01672F71917723E1F748
S1130440329704C07C916D9370836291AE17BF079D
S10B0450C8F30895F894FFCFEE
S9030000FC
