:100000000C9446000C9465000C9465000C946500FB
:100010000C9465000C9465000C9465000C946500CC
:100020000C9465000C9465000C9465000C946500BC
:100030000C9465000C9465000C9465000C946500AC
:100040000C94DB000C9465000C9465000C94650026
:100050000C9465000C9465000C9465000C9465008C
:100060000C9465000C9465000C9465000C9465007C
:100070000C9465000C9465000C9465000C9465006C
:100080000C9465000C9465000C94650011241FBE4F
:10009000CFEFD0E1DEBFCDBF11E0A0E0B1E0ECEAF0
:1000A000F6E000E00BBF02C007900D92A431B1074B
:1000B000D9F721E0A4E1B1E001C01D92AE32B20750
:1000C000E1F70E9413020C9454030C9400008DB1CC
:1000D00080658DB9709A089580B7886080BF87B7B2
:1000E000816087BF83B7816083BF0895CF93DF931B
:1000F000CDB7DEB728970FB6F894DEBF0FBECDBFE1
:100100009BEF9D8393EF9E8397EF9F839FEF98874D
:100110002EEF29832CEF2A832DEF2B839C8313B89A
:100120001F9AFE013196DE0115969D019191981757
:10013000B1F09C919817A9F01196E217F307B1F767
:10014000413089F4873F21F18093250128960FB62D
:10015000F894DEBF0FBECDBFDF91CF91089540E090
:10016000EBCF41E0E9CF8D3F79F7909125012DEF5D
:1001700030E0291B310921303105B9F02E3F3F4FC6
:1001800019F791E0909328019FEF90932601DCCF1F
:100190009091250127EF30E0291B310924303105EA
:1001A00021F0283F3F4F81F6ECCF91E0909328015A
:1001B00090932601C9CF1F920F920FB60F92112470
:1001C0000BB60F922F933F934F935F936F937F9351
:1001D0008F939F93AF93BF93EF93FF938FB10E9441
:1001E0007600809114018FB9779BFECFC09AC0989A
:1001F000FF91EF91BF91AF919F918F917F916F91FF
:100200005F914F913F912F910F900BBE0F900FBEBA
:100210000F901F901895E82FF0E0C8991BC089B384
:10022000EE0FFF1FEB5EFE4F8095282F217030E010
:10023000306E80819181880F991F282B392B318353
:10024000208381E020911501309116012115304F56
:10025000D9F0089549B3EE0FFF1FEB5EFE4F2081EA
:100260003181220F331F306E50E002C05595479503
:100270008A95E2F741705527242B352B3183208353
:1002800081E02115304F29F380E00895AC019C01F5
:10029000369527953695279536952795A5ECB0E2A6
:1002A0000E944503929582958F7089279F708927B8
:1002B00080932D019A013695279536952795ABE7C2
:1002C000B4E10E944503FC01F695E7959F01ADEC72
:1002D000BCEC0E94450396958795969587959695D3
:1002E0008795BC01660F771F880F991F880F991F8C
:1002F000880F991F680F791FE61BF70BE0932C01FD
:100300009A010E944503FC01F695E795F695E7955D
:10031000F695E7959F010E944503969587959695DA
:100320008795969587959C01220F331F880F991FFB
:10033000880F991F880F991F280F391FCF01821B23
:10034000930B80932A01CF01880F991FEE0FFF1F97
:10035000EE0FFF1FEE0FFF1F8E0F9F1F481B590B45
:100360004093290108950F93A1E0B0E050E130E3FC
:10037000FD013197E130F105F1F0E230F1055CF07B
:10038000E330F10529F1349781F5885E9340489771
:1003900088F10F910895EF2B41F518BA6BBBEFE38D
:1003A000FFE13197F1F700C000001196FD01319790
:1003B000E130F10511F78A309105BCF358BB4BBB16
:1003C000EFE3FFE13197F1F700C000001196EECFA7
:1003D0008436910554F338BB2BBBEFE3FFE1319733
:1003E000F1F700C000001196E1CFA530B10589F208
:1003F0001196DCCF80E488BB0BBB8FE39FE10197B4
:10040000F1F700C000000F9108958A30910540F483
:10041000FC01EE0FFF1FE050FF4F80819181089596
:100420008FEF90E0089587EF87BB82B1806C82B92F
:100430001ABA80B7886080BF87B7816087BF83B7EB
:10044000816083BF8DB180658DB9709A7894B12C2D
:10045000C0E0D0E0EE24EA9480E7C82E94E0A92E14
:100460002FE0922E8824839433E0732E4FE5D42E10
:10047000D4C086E0B81609F405C187E0B81609F4BF
:10048000EFC002E0F02E87E00E940B018111E2C074
:1004900056E0B52E81E0F81609F4E7C0F81608F426
:1004A000DBC082E0F81609F4E8C084E0F81206C068
:1004B000A092270190921401B4E0FB2EC11584E0B4
:1004C000D80780F42091280180912601280290010C
:1004D000112440912701429FC001439F900D112498
:1004E000C80FD91FC11584E0D8070CF4AFC0CF5F87
:1004F000D3409E01369527953695279536952795B5
:10050000A5ECB0E20E9445038C01129502950F7094
:1005100001271F70012700932D019E013695279515
:1005200036952795ABE7B4E10E944503AC0156959B
:1005300047959A01ADECBCEC0E944503FC01F69591
:10054000E795F695E795F695E795CF01880F991F02
:10055000EE0FFF1FEE0FFF1FEE0FFF1F8E0F9F1FEF
:10056000FA01E81BF90BE0932C019E010E94450360
:10057000AC015695479556954795569547959A01DE
:100580000E944503969587959695879596958795AC
:100590009C01220F331F880F991F880F991F880F06
:1005A000991F280F391FCA01821B930B80932A01C0
:1005B0009A01220F331F440F551F440F551F440F3C
:1005C000551F240F351FDE01A21BB30BA093290179
:1005D000AA0FBB1FA050BF4F6D917C91DC01AA0FE9
:1005E000BB1FA050BF4F4D915C91EE0FFF1FE0501D
:1005F000FF4F208131810A30110528F5F801EE0FF7
:10060000FF1FE050FF4F0081118110922801D8BADE
:10061000EABA1BBACE010E94B301EBBAC8BA86E0AF
:100620000E940B01811125CF87E00E940B018823D6
:1006300009F430CF87E0B816C1F086E0B81651F063
:1006400017E0B12E35CF0FEF10E0DFCFD7FF51CF3E
:10065000DC5F4FCF46E0B42E10922701F12C2ECF55
:1006600087E00E940B018823B9F380922701109242
:100670001401FF24F394B12C21CFF0922701709242
:1006800014011CCFFF24F394FECEA29FB001B39FB0
:10069000C001A39F700D811D1124911DB29F700D8B
:0C06A000811D1124911D0895F894FFCFD6
:1006AC00C000F900A400B000990092008200F8008C
:0406BC00800090002A
:00000001FF
