S00C00006C6162352E73726563B4
S11300000C9446000C9465000C9465000C946500F7
S11300100C9465000C9465000C9465000C946500C8
S11300200C9465000C9465000C9465000C946500B8
S11300300C9465000C9465000C9465000C946500A8
S11300400C9465000C9465000C945C040C9465009D
S11300500C9465000C9465000C9465000C94650088
S11300600C9465000C9465000C9465000C94650078
S11300700C9465000C9465000C9465000C94650068
S11300800C9465000C9465000C94650011241FBE4B
S1130090CFEFD0E1DEBFCDBF11E0A0E0B1E0E4E3FB
S11300A0F9E000E00BBF02C007900D92AE30B1073B
S11300B0D9F721E0AEE0B1E001C01D92A437B20748
S11300C0E1F70E9488040C9498040C940000E2E682
S11300D0F0E08081886080838081877F80830895B9
S11300E01FB8779BFECF81E08FB9779BFECF8091BD
S11300F0620088608093620080916200877F8093B1
S113010062008FE891E00197F1F700C000008FE3EF
S11301109FE10197F1F700C0000008951FB8779B95
S1130120FECF80E88FB9779BFECF80916200886014
S11301308093620080916200877F809362008FE8E1
S113014091E00197F1F700C0000008951FB8779B74
S1130150FECF80EC8FB9779BFECF809162008860E0
S11301608093620080916200877F809362008FE8B1
S113017091E00197F1F700C0000008951FB8779B44
S1130180FECF8FE08FB9779BFECF809162008860AD
S11301908093620080916200877F809362008FE881
S11301A091E00197F1F700C0000008951FB8779B14
S11301B0FECF8CE08FB9779BFECF80916200886080
S11301C08093620080916200877F809362008FE851
S11301D091E00197F1F700C000000895603120F428
S11301E0813019F08230C9F0089560581FB8779BA8
S11301F0FECF6FB9779BFECF8091620088608093B9
S1130200620080916200877F809362008FE891E0B2
S11302100197F1F700C0000008956054E7CF80E132
S113022090E041E030E24FB9779BFECF3FB9779B36
S1130230FECF20916200286020936200209162002A
S1130240277F20936200EFE8F1E03197F1F700C0D7
S113025000000197009739F70895843608F45DC0CB
S11302609CE9980F943608F45CC0885C22E391E022
S11302709FB9779BFECF2FB9779BFECF90916200F9
S113028098609093620090916200977F90936200CF
S1130290EFE8F1E03197F1F700C0000091E08A3017
S11302A0C0F190E09F5F8A508A30E0F721E02FB9D7
S11302B0779BFECF905D9FB9779BFECF90916200B4
S11302C098609093620090916200977F909362008F
S11302D0EFE8F1E03197F1F700C000008823F9F06E
S11302E0805D91E09FB9779BFECF8FB9779BFECF5E
S11302F08091620088608093620080916200877FB1
S1130300809362008FE891E00197F1F700C000004C
S11303100895913019F790E0C9CF90E0C0CF80E301
S1130320E0CF892F21E3A3CF803127E2920708F49D
S1130330BFC020E001C0232F31E0320F805197422B
S1130340803147E29407B8F731E03FB9779BFECF9D
S11303502F5C2FB9779BFECF2091620028602093F9
S1130360620020916200277F20936200EFE8F1E0B1
S11303703197F1F700C0000021E0883EF3E09F07C9
S113038008F48EC020E02F5F885E9340883E33E0FF
S11303909307C8F731E03FB9779BFECF205D2FB9B3
S11303A0779BFECF20916200286020936200209109
S11303B06200277F20936200EFE8F1E03197F1F7C4
S11303C000C0000031E08436910508F465C020E0E7
S11303D02F5F8456910984369105D0F7222309F4BE
S11303E05BC031E03FB9779BFECF205D2FB9779B8F
S11303F0FECF209162002860209362002091620069
S1130400277F20936200EFE8F1E03197F1F700C015
S1130410000031E08A309105D8F120E02F5F0A977F
S11304208A309105D8F7222399F131E03FB9779BBF
S1130430FECF205D2FB9779BFECF2091620028600C
S11304402093620020916200277F20936200EFE8EE
S1130450F1E03197F1F700C00000009759F1805D99
S113046091E09FB9779BFECF8FB9779BFECF8091A8
S1130470620088608093620080916200877F80932D
S113048062008FE891E00197F1F700C00000089541
S1130490313019F720E0C9CF313041F030E0BACF24
S11304A0213011F030E08FCF20E074CF20E099CFDD
S11304B020E063CF80E3D4CF91E09FB9779BFECF58
S11304C08FB9779BFECF8091620088608093620031
S11304D080916200877F809362008FE891E00197AA
S11304E0F1F700C000000895DC0120E030E090E066
S11304F041E04FB9779BFECFFD01E20FF31F8081EE
S11305008FB9779BFECF80916200886080936200F0
S113051080916200877F80936200EFE8F1E0319779
S1130520F1F700C000009F5F292F30E0FD0101902A
S11305300020E9F7EA1BFB0B3297E217F307C8F632
S11305400895E1E6F0E080818860808388B388BB09
S113055087B3876087BB80E58DB981E08EB9089544
S11305608091610088608093610088B388BB87B301
S1130570876087BB80E58DB981E08EB98091610089
S11305808860809361008FE59AEE0197F1F700C0CF
S113059000001FB8779BFECF88E38FB9779BFECF0F
S11305A08091620088608093620080916200877FFE
S11305B0809362008FE891E00197F1F700C000009A
S11305C08FE19EE40197F1F700C000001FB8779B0C
S11305D0FECF88E08FB9779BFECF80916200886060
S11305E08093620080916200877F809362008FE82D
S11305F091E00197F1F700C000008FE39FE10197BC
S1130600F1F700C000001FB8779BFECF86E08FB9DA
S1130610779BFECF80916200886080936200809116
S11306206200877F809362008FE891E00197F1F781
S113063000C000001FB8779BFECF80E48FB9779B82
S1130640FECF809162008860809362008091620096
S1130650877F809362008FE891E00197F1F700C0F3
S1130660000081E08FB9779BFECF8EE08FB9779B36
S1130670FECF809162008860809362008091620066
S1130680877F809362008FE891E00197F1F700C0C3
S1130690000081E08FB9779BFECF8BE18FB9779B08
S11306A0FECF809162008860809362008091620036
S11306B0877F809362008FE891E00197F1F700C093
S11306C0000081E08FB9779BFECF81E18FB9779BE2
S11306D0FECF809162008860809362008091620006
S11306E0877F809362008FE891E00197F1F700C063
S11306F0000081E08FB9779BFECF81E18FB9779BB2
S1130700FECF8091620088608093620080916200D5
S1130710877F809362008FE891E00197F1F700C032
S1130720000081E08FB9779BFECF81E18FB9779B81
S1130730FECF8091620088608093620080916200A5
S1130740877F809362008FE891E00197F1F700C002
S1130750000081E08FB9779BFECF81E18FB9779B51
S1130760FECF809162008860809362008091620075
S1130770877F809362008FE891E00197F1F700C0D2
S1130780000081E08FB9779BFECF81E18FB9779B21
S1130790FECF809162008860809362008091620045
S11307A0877F809362008FE891E00197F1F700C0A2
S11307B0000081E08FB9779BFECF8FE18FB9779BE3
S11307C0FECF809162008860809362008091620015
S11307D0877F809362008FE891E00197F1F700C072
S11307E000001FB8779BFECF81E08FB9779BFECFC7
S11307F08091620088608093620080916200877FAC
S1130800809362008FE891E00197F1F700C0000047
S11308108FE19EE40197F1F700C000001FB8779BB9
S1130820FECF8CE08FB9779BFECF80916200886009
S11308308093620080916200877F809362008FE8DA
S113084091E00197F1F700C00000089590939000A3
S113085089B988E98AB986E08093950008955D9BFB
S1130860FECF8CB908958BB1807808955F9BFECF3D
S11308708CB10895FC012081222339F031965D9BCF
S1130880FECF2CB921912111FACF089583E091E094
S11308900E94740280912D01813021F08CE091E05E
S11308A00C94740282E691E00E94740210922D016D
S11308B08CE091E00C9474021F920F920FB60F9289
S11308C011240BB60F928F939F93EF93FF935F9B2B
S11308D0FECF8CB180937301E0913C0191E09E0FB7
S11308E090933C01F0E0EE59FE4F8083811105C0E6
S11308F081E080932D0110923C01FF91EF919F9133
S11309008F910F900BBE0F900FBE0F901F901895F4
S113091085E28093900080E889B988E98AB986E005
S1130920809395000E94B00278940E944604FDCF03
S1070930F894FFCF65
S111093402010152656D6F74653A20004300A4
S9030000FC
