S0100000746573746C6564312E73726563EE
S11300000C9446000C9450000C9450000C94500036
S11300100C9450000C9450000C9450000C9450001C
S11300200C9450000C9450000C9450000C9450000C
S11300300C9450000C9450000C9450000C945000FC
S11300400C9450000C9450000C9450000C945000EC
S11300500C9450000C9450000C9450000C945000DC
S11300600C9450000C9450000C9450000C945000CC
S11300700C9450000C9450000C9450000C945000BC
S11300800C9450000C9450000C94500011241FBE8A
S1130090CFEFD0E1DEBFCDBF0E94AB000C94EE00E9
S11300A00C9400008EEF8BBB2FE784E89EE1215077
S11300B080409040E1F700C000008DEF8BBB2FE73C
S11300C084E89EE1215080409040E1F700C00000A8
S11300D08BEF8BBB2FE784E89EE12150804090405A
S11300E0E1F700C0000087EF8BBB2FE784E89EE1B7
S11300F0215080409040E1F700C000008FEE8BBBA0
S11301002FE784E89EE1215080409040E1F700C051
S113011000008FED8BBB2FE784E89EE121508040E7
S11301209040E1F700C000008FEB8BBB2FE784E821
S11301309EE1215080409040E1F700C000008FE72D
S11301408BBB2FE784E89EE1215080409040E1F78B
S113015000C0000008958FEF8ABB90EF97BB11BADF
S113016082BB8BBB80E090E020E2E22E30E3F32EF2
S113017000E410E18530910594F482309105F9F0A2
S1130180ACF08330910509F18430910521F508BB69
S11301900E94520085E090E08530910574F3C1E03F
S11301A0D0E018BA0E945200CE01E4CF813091050C
S11301B091F418BB0E94520082E090E0DBCFE8BAD1
S11301C00E94520083E090E0D5CFF8BA0E9452001A
S11301D084E090E0CFCFEC012196E3CFF894FFCFF9
S9030000FC
